:100000000C94C4070C940B080C940B080C9412323B
:100010000C940B080C940B080C940B080C940B0814
:100020000C940B080C940B080C9415180C94161DCA
:100030000C945B280C940B080C940B080C940B0884
:100040000C940B080C940B080C940B080C940B08E4
:100050000C940B080C94EC180C940B080C940B08E3
:100060000C940B080C940B080C940B080C940B08C4
:100070000C940B080C940B080C940B080C940B08B4
:100080000C940B080C940B080C940B080C940B08A4
:100090000C940B080C940B080C940B080C940B0894
:1000A0000C940B080C940B080C940B080501090226
:1000B000A10185020901A1000509190129081500FE
:1000C0002501950875018102050109300931158165
:1000D000257F95027508810609381581257F9501D0
:1000E00075088106050C0A38021581257F95017572
:1000F000088106C0C005010980A101850319012AF4
:10010000B700150126B700950175108100C0050CD8
:100110000901A101850419012AA002150126A002E6
:10012000950175108100C005010906A1018505052D
:100130000719E029E71500250195087501810205D9
:1001400007190029EF1500250195F07501810205B9
:10015000081901290595057501910295017503910D
:1001600001C00660FF0961A1010962150026FF00B8
:100170009520750881020963150026FF00952075FA
:10018000089102C005010906A101050719E029E748
:1001900015002501950875018102950175088101F9
:1001A0000507190029FF150026FF0095067508812F
:1001B000000508190129059505750191029501753C
:1001C000039101C0000000000000000000000000DA
:1001D000000000000000000000000000000000001F
:1001E00000000000000000007E0F00D4FFFFFFC7EA
:1001F0000000007800000000000000002A2B28000A
:1002000000000000000000000000000000000029C5
:10021000000000002C1E3420212224342627252E05
:10022000362D3738271E1F2021222324252633333D
:10023000362E37381F0405060708090A0B0C0D0E69
:100240000F101112131415161718191A1B1C1D2F35
:100250003130232D350405060708090A0B0C0D0E55
:100260000F101112131415161718191A1B1C1D2F15
:100270003130354C00DA0281FFD9F1DB20A4A62E03
:10028000AF00A0C000A1C800AED580A81FD3004019
:100290008D142000643214643214783C1E1E140A3B
:1002A000052D2D2D2D2D002E0053435220002E0004
:1002B0004E554D20002E0043415020002000556E29
:1002C0006465660033003200310030004C59522022
:1002D000002D2D2D2D2D00F8FEFEFFFFFFFFFFFF4F
:1002E000FFFFFFFFFF3F0E0604FEFEFFFFFFFFFFC5
:1002F000FFFEFEFCF8F0C07FFFFFFFFFFFFFFFFFE8
:10030000FFFFFFFFFFF0C08080FFFFFFFFFFFFFF49
:10031000FFFFFFFF7F3F0F00010103030303030300
:1003200003030303030301010001010303030303A8
:1003300003010100000000000000000000000000B8
:100340000080C0C0E0E0E0E0E0E0E0E0E0E0E0E02D
:10035000E0E0C0C08080C0C0E0E0E0E0E0E0E0E0DD
:10036000C0C080000000000000000000000000008D
:10037000000000000000000000000000000000007D
:10038000000000000000000000000000000000006D
:10039000000000000000000000000000000000005D
:1003A000000000000000000000000000000000004D
:1003B000000000000000000000000000000000003D
:1003C000FFFFFFFFFFFFFFFFFFFFFFFFFFFFFFFF3D
:1003D000FF0F03010001FFFFFFFFFFFFFFFFFFFF14
:1003E000FFFFFFFFFEFCF000000000000000000027
:1003F000FEFEFE000000000000FEFEFE000000FE0B
:10040000FEFEFCF8E0C080E0F8FCFEFEFE0000808E
:100410008080808080000E0E0E0E8EEEFEFE7E1E10
:1004200004E0F8FC3E1E0E0E0E1E3EFCF8F000002E
:1004300000000000000000000000000000000000BC
:10044000FFFFFFFFFFFFFFFFFFFFFFFFFFFFFFFFBC
:10045000FFF0C0800080FFFFFFFFFFFFFFFFFFFFF7
:10046000FFFFFFFF7F3F0F000000000000000000C3
:100470000F3F3F7C707070707C3F3F0F0000007F2B
:100480007F7F0001070F0F0701007F7F7F000003C0
:1004900003030303030100707C7E3F0F0301000090
:1004A000000F1F3F7C78707070787C3F1F0F00003A
:1004B000000000000000000000000000000000003C
:1004C00000010307070707070707070707070707CD
:1004D00007070303010103030707070707070707C8
:1004E0000303010000000000000000000000000005
:1004F00000000000000000000000000000000000FC
:1005000000000000000000000000000000000000EB
:1005100000000000000000000000000000000000DB
:1005200000000000000000000000000000000000CB
:1005300000000000000000000101010101010101B3
:100540000102020202020202020203030303030386
:100550000303040404040404040505050505060654
:100560000606060707070707080808080909090912
:100570000A0A0A0B0B0B0C0C0C0D0D0D0E0E0E0FB8
:100580000F0F101011111112121313141415151648
:10059000161717181819191A1A1B1B1C1D1D1E1EB9
:1005A0001F2020212222232424252626272829290A
:1005B0002A2B2C2D2D2E2F30313232333435363735
:1005C00038393A3B3C3D3E3F404142434445464733
:1005D00048494A4C4D4E4F50515354555658595A0C
:1005E0005B5D5E5F616264656668696B6C6D6F70B0
:1005F00072737577787A7B7D7E8082838587888A1F
:100600008C8E8F91939596989A9C9EA0A2A3A5A755
:10061000A9ABADAFB1B3B5B7BABCBEC0C2C4C6C951
:10062000CBCDCFD1D4D6D8DBDDDFE2E4E7E9EBEE0A
:10063000F0F3F5F8FAFDFF2223252628292A2C2D90
:100640002F3032333536383A3B3D3E404243454702
:10065000494A4C4E5051535557595A5C5E6062643A
:100660006668696B6D6F71737577797B7D7F818348
:100670008587898A8C8E90929496989A9C9E9FA149
:10068000A3A5A7A8AAACAEAFB1B3B4B6B8B9BBBC6A
:10069000BEBFC1C2C3C5C6C7C9CACBCCCDCED0D1DF
:1006A000D2D2D3D4D5D6D7D7D8D9D9DADADBDBDBD7
:1006B000DCDCDCDCDCDDDDDDDDDCDCDCDCDCDBDB78
:1006C000DBDADAD9D9D8D7D7D6D5D4D3D2D2D1D0CC
:1006D000CECDCCCBCAC9C7C6C5C3C2C1BFBEBCBBC9
:1006E000B9B8B6B4B3B1AFAEACAAA8A7A5A3A19F41
:1006F0009E9C9A98969492908E8C8A898785838105
:100700007F7D7B79777573716F6D6B6968666462E5
:10071000605E5C5A5957555351504E4C4A494745B3
:100720004342403E3D3B3A3836353332302F2D2C54
:100730002A29282625232229001E001F0020002107
:10074000002200230000002B0014001A00080015EE
:10075000001700000000003900040016000700091F
:10076000000A0000000000E1001D001B0006001947
:1007700000050000000000E000E300E20001512C51
:10078000001E001F00200024002500260027002D49
:10079000002E0035002A001C0018000C0012001367
:1007A000002F00300031000B000D000E000F003351
:1007B0000034002800A8001100100036003700386F
:1007C00000E50052004A002C00E600E40050005111
:1007D000004F0000004D0001000100010001000178
:1007E0000001000100000001000100010001000102
:1007F00000010000000000010001000100010001F3
:1008000000010000000000010001000100010001E2
:1008100000010000000000010001000100010001D2
:1008200000010001000100010001000100010001C0
:1008300000010001000100010001000100010001B0
:1008400000010001000100010001000100010001A0
:100850000001000100010001000100010001000190
:100860000001000100010001000100010001000180
:100870000001000000010001000100010001000171
:100880000001000100000001000100010001000161
:100890000001000000000001000100010001000152
:1008A0000001000000000001000100010001000142
:1008B0000001000000000001000100010001000132
:1008C0000001000100010001000100010001000120
:1008D0000001000100010001000100010001000110
:1008E0000001000100010001000100010001000100
:1008F00000010001000100010001000100010001F0
:1009000000010001000100010001000100010001DF
:1009100000010000000100010001000100010001D0
:1009200000010001000000010001000100010001C0
:1009300000010000000000010001000100010001B1
:1009400000010000000000010001000100010001A1
:100950000001000000000001000100010001000191
:10096000000100010001000100010001000100017F
:10097000000100010001000100010001000100016F
:10098000000100010001000100010001000100015F
:10099000000100010001000100010001000100014F
:1009A000000100010001000100010001000100013F
:1009B0000001000000010007087F0807003E5B4FB0
:1009C0005B3E003E6B4F6B3E001C3E7C3E1C0018A5
:1009D0003C7E3C18001C577D571C001C5E7F5E1C33
:1009E0000000183C180000FFE7C3E7FF00001824D0
:1009F000180000FFE7DBE7FF0030483A060E00264C
:100A00002979292600407F05050700407F05253FFD
:100A1000005A3CE73C5A007F3E1C1C0800081C1C86
:100A20003E7F0014227F2214005F5F005F5F00069C
:100A3000097F017F00006689956A006060606060E0
:100A40000094A2FFA2940008047E04080010207EF7
:100A500020100008082A1C0800081C2A0808001E8C
:100A600010101010000C1E0C1E0C0030383E3830D8
:100A700000060E3E0E060000000000000000005FB1
:100A8000000000000700070000147F147F140024FA
:100A90002A7F2A1200231308646200364956205028
:100AA00000000807030000001C2241000000412252
:100AB0001C00002A1C7F1C2A0008083E08080000B1
:100AC000807030000008080808080000006060001E
:100AD000002010080402003E5149453E0000427FBC
:100AE0004000007249494946002141494D330018F0
:100AF00014127F10002745454539003C4A494931C9
:100B00000041211109070036494949360046494943
:100B1000291E000000140000000040340000000006
:100B20000814224100141414141400004122140863
:100B3000000201590906003E415D594E007C121128
:100B4000127C007F49494936003E41414122007FE5
:100B50004141413E007F49494941007F090909015E
:100B6000003E41415173007F0808087F0000417F2B
:100B70004100002040413F01007F08142241007FD6
:100B800040404040007F021C027F007F0408107F2D
:100B9000003E4141413E007F09090906003E4151A6
:100BA000215E007F09192946002649494932000380
:100BB000017F0103003F4040403F001F2040201FB5
:100BC000003F4038403F006314081463000304787A
:100BD0000403006159494D4300007F414141000237
:100BE0000408102000004141417F0004020102047A
:100BF00000404040404000000307080000205454DB
:100C00007840007F28444438003844444428003861
:100C10004444287F0038545454180000087E0902C8
:100C20000018A4A49C78007F080404780000447D88
:100C30004000002040403D00007F1028440000009C
:100C4000417F4000007C04780478007C080404782C
:100C500000384444443800FC182424180018242484
:100C600018FC007C08040408004854545424000470
:100C7000043F4424003C4040207C001C2040201CB9
:100C8000003C4030403C004428102844004C9090E8
:100C9000907C004464544C4400000836410000003D
:100CA0000077000000004136080000020102040243
:100CB000003C2623263C000000000000004040408D
:100CC000F0F8F8FF38FFF8F83FF8F8FF38FFF8F8C9
:100CD000F040404000000000000080C0C0C0800024
:100CE00000C0C08000000080C0C000C0C000008004
:100CF000C0C00000000000C0C0C0C0C000C0C00034
:100D000000000000000000000000000000000000E3
:100D100000000000000000000000000000000000D3
:100D200000000000000000000000000000000000C3
:100D3000000000000000C0F0F8FC3E1E06010000AC
:100D4000007F4141417F007F4141417F000080C0E1
:100D5000E07E5B4F5BFEC00000C000DCD7DEDEDE65
:100D6000D7DC00C000000000000000000000000010
:100D70000000000000000000000000000049494998
:100D8000FFFFFFFFE0DFBFBF00BFBFDFE0FFFFFFF0
:100D9000FF49494900000000001F3F6060E0BF1F9D
:100DA000007F7F071E381E077F7F007F7F0E1F3B5F
:100DB000716000000000007F7F0C0C0C007E7E0044
:100DC0007F7E0303007F7E03037E7E03037F7E001E
:100DD0000F3E703C063C703E0F00327B49493F7E1F
:100DE000007F7E0303001E3F69696F26000000003C
:100DF000000000000000030F1F3F3C7870600000FF
:100E0000007F4141417F007F4141417F00307B7F36
:100E10007830202030787F3B0003000F7F0F0F0FCA
:100E20007F0F000300000000000000000000000031
:100E300000000000000000000000000000010101AF
:100E4000070F0F7F0F7F0F0F7E0F0F7F0F7F0F0F8B
:100E50000701010100000000000000000000010186
:100E60000000000000000000000000000000000082
:100E70000000000000000000000000000000000072
:100E80000000000000000000000000000000000062
:100E90000000000000000000000000000000000052
:100EA0000000000000000000000000000000000042
:100EB0000000000000000000000000000000000032
:100EC0000000000000000000000000000000000022
:100ED0000000000000000000000000000000000012
:100EE0000000000000000000000000000000000002
:100EF0000000000000000000AF00AE09025B00032C
:100F00000100A0FA090400000103010100092111F8
:100F10000100012240000705810308000A090401BD
:100F20000002030000000921110100012222000734
:100F300005820320000107050303200001090402C4
:100F400000010300000009211101000122B6000781
:100F500005840320000A1201000200000008654D0C
:100F600022320100010200010C0355004D002D004A
:100F70003700300000000C034D0065007200670070
:100F8000650000000403090411241FBECFEFDAE05E
:100F9000DEBFCDBF04B603FE27C0809160069091EE
:100FA0006106A0916206B09163068730904BA7401E
:100FB000B04BD1F410926006109261061092620656
:100FC0001092630614BE84B7877F84BF0FB6F8946F
:100FD000A895809160008861809360001092600005
:100FE0000FBEE0E0F8E3099511E0A0E0B1E0E0E732
:100FF000FDE602C005900D92A63EB107D9F726E0A6
:10100000A6EEB1E001C01D92A036B207E1F70E9442
:1010100082280C947F360C94000090915F06899F83
:10102000C0011124811522E0920714F090E080E0C5
:10103000815A9B4F90935E0480935D040895E8ED80
:10104000F0E080818E7F80831092E2001092DA00BF
:101050001092E100A0EEB0E08C9181608C938081D1
:101060008F77808319BCA7EDB0E08C918E7F8C9335
:1010700080818F7E808310922C0408952091E4005B
:101080003091E50095E6A9012091EC00822F817056
:1010900020FF06C08091E80080FF06C080E0089530
:1010A0002091E80022FD1AC080915204882389F023
:1010B000853089F08091EB0085FD0FC02091E40020
:1010C0003091E50042175307F9F29150E1F684E0C0
:1010D000089582E0089583E0089581E00895EF92F5
:1010E000FF920F931F93CF937C018B010E943E08C8
:1010F000C82F811117C08091E80085FD0BC0809139
:10110000E8008E778093E8000E943E08882399F3D8
:10111000C82F08C0F70181917F018093F100015031
:10112000110949F78C2FCF911F910F91FF90EF90EC
:1011300008958091540487FF13C08091E80082FFD6
:1011400006C08091E8008B778093E80004C080910E
:1011500052048111F2CF0895809152048823D9F36B
:101160008091E80080FFF8CF8091E8008E77ECCF87
:10117000982F9093E900242F762F50E0891731F0B3
:101180007091EC002091ED005091F00021FD07C01E
:101190009F5F973071F78093E90081E00895309167
:1011A000EB003E7F3093EB003091ED003D7F3093BC
:1011B000ED003091EB0031603093EB007093EC0068
:1011C0002093ED005093F0002091EE0027FDE0CF3A
:1011D00080E00895CF92DF92EF92FF920F931F93DA
:1011E000CF93DF93C8EDD0E088818F7E8883E7EDD1
:1011F000F0E080818160808384E082BF81E0809321
:101200002C0488818E7F888302EE10E0F801108222
:101210001092DA0081EEC82ED12CF601108288815E
:101220008F77888388818068888388818F7D888391
:1012300019BC10925204109253041092510410924F
:10124000500490EEE92EF12CF70180818B7F808392
:1012500088818160888342E060E080E00E94B80875
:10126000F60180818E7F8083F80180818160808398
:10127000808188608083F70180818E7F8083888170
:1012800080618883DF91CF911F910F91FF90EF9044
:10129000DF90CF900895FC0180915A0490915B04F7
:1012A00086179707A0F06115710529F49091E80061
:1012B0009E779093E80090E06115710551F49111CB
:1012C00008C08091E80082FF34C080E00895BC012E
:1012D000F2CF809152048823C1F18530C1F1809111
:1012E000E80083FD30C08091E80082FDEACF809164
:1012F000E80080FFE1CF8091F3002091F200382FC9
:101300006115710519F02830310558F091E0283049
:10131000310509F090E02091E8002E772093E80055
:10132000CBCF81918093F100615071092F5F3F4FC6
:10133000E7CF80915204882341F0853041F08091BD
:10134000E80083FFBECF81E0089582E0089583E046
:10135000089580912F0408952FB7F8946091230485
:101360007091240480912504909126042FBF089544
:1013700020915E012223C9F02091270427FF15C088
:10138000E62FE695E695E695EE31D8F4E80FF92FCD
:10139000F11D677021E030E001C0220F6A95EAF785
:1013A00020958281282322830895FC013296089695
:1013B0002191621303C0DF0111971C92E817F9070E
:1013C000B9F7089520911C0430911D04281739079E
:1013D00071F090931D0480931C04E0911A04F09125
:1013E0001B04309721F00084F185E02D09940895C5
:1013F00020911804309119042817390771F090933F
:10140000190480931804E0911A04F0911B0430979A
:1014100021F00680F781E02D09940895CF93DF93A2
:1014200020915D0430915E042F553440A901460F90
:10143000571F4130524020F060E072E0621B730B96
:101440004091100450911104FC01C901620F731FF7
:10145000C1E0D0E08617970738F05093110440930D
:101460001004DF91CF9108952491DC01A15ABB4F64
:101470003C91321781F02C939C01A5E0369527957D
:10148000AA95E1F7DE0102C0AA0FBB1F2A95E2F779
:101490009D014A2B532B01963196DCCFFC01680F3E
:1014A000791F8FEF91E32191822728E030E087FFB9
:1014B00009C0880F892721503109C9F7E617F707B6
:1014C00091F70895880FF7CFFA01811101C0FB0150
:1014D00009940895E8E0F3E01182828184608283B8
:1014E000089580910504982F9E7F61F48170826039
:1014F0008093050480910804873918F086E9809369
:10150000080408958A32B0F381708862F1CFAF92F7
:10151000BF92DF92EF92FF920F931F93CF93DF93CF
:10152000082F162FE901E42FF0E0E95CFA4F611172
:1015300010C0E4915E2F4E2F4983E8835A83DF91D8
:10154000CF911F910F91FF90EF90DF90BF90AF90E0
:101550000895E62EF12C4491D42EE42FF0E026E0FD
:10156000829FC00111242FEF30E0B9010E948C331B
:10157000802F90E0880F991F55E5569FD001579F07
:10158000B00D11248A1B9B0B982F990F890F5901BD
:10159000AE18BF08AE9ED001AF9EB00DBE9EB00D7E
:1015A00011245B2F189F80011124012F112759014D
:1015B000A01AB10AAE9E8001AF9E100DBE9E100D06
:1015C00011245901A81AB108AE9CC001AF9C900D1E
:1015D000BE9C900D1124892F9927281B390B2E9F13
:1015E000C0012F9F900D3E9F900D1124E92F623076
:1015F0007105A1F050F46115710509F49DCF6130BA
:10160000710581F0EB2F512F97CF6430710569F090
:1016100080F06630710509F48FCFF4CFE42F4B2FA3
:10162000592F8ACFE42F412F87CFEB2F542F492FEB
:1016300083CF4B2F5D2DE12F7FCF4091FE02803F66
:1016400059F48091FF0287FF0DC01092FF024111F3
:101650000BC01092F60208C0813F81F48091FF0216
:1016600018169CF3442381F08091000390910103AC
:10167000892B09F05AC01092F5020895823F49F46F
:1016800047FFF0CF1092FE028091FF028111ECCF54
:10169000E0CF833F19F41416ACF3E4CF909100032C
:1016A000893F29F41916F4F610920003DBCF8A3F24
:1016B00019F497FFD7CFF8CF909101038B3F29F40E
:1016C00097FFD0CF10920103CDCF8C3F19F419169C
:1016D000CCF3C8CF9CE0980F953090F4845F990BC1
:1016E00021E030E0B90102C0660F771F8A95E2F76A
:1016F000CB0180959091FD0289238093FD02B2CFAA
:101700008D3F31F48091F7028E7F8093F702AACF4C
:101710008E3F21F48091F7028D7FF7CF8F3F09F044
:10172000A1CF8091F7028B7FF0CF08958091F702CF
:1017300080FD16C081FD16C082FD16C08091F502A5
:101740008823A1F0883280F428E0829FC001112410
:1017500068E270E00E94BA33862F672B39F0089553
:1017600082E0089584E0089588E0089581E0089576
:101770008091F70280FD14C081FD14C082FD16C067
:101780008091F602882381F0843180F422E3829FE5
:10179000C001112464E170E00E94BA33862F0895DD
:1017A0008CE0089589E1089585E0089582E3089525
:1017B000803F31F40E94B80B81958093FF02089519
:1017C000813F19F40E94B80BF8CF823F31F40E9498
:1017D000B80B81958093FE020895833F19F40E940F
:1017E000B80BF8CF893F29F40E94960B8093000331
:1017F00008958A3F21F40E94960B8195F7CF8B3F85
:1018000031F40E94960B81958093010308958C3FDB
:1018100019F40E94960BF8CF9CE0980F953070F465
:10182000845F990B21E030E001C0220F8A95EAF72E
:101830008091FD02822B8093FD0208958D3F31F44B
:101840008091F70281608093F70208958E3F21F422
:101850008091F7028260F7CF8F3FB9F78091F7024E
:101860008460F1CF80E0089578940895F894E82F8B
:10187000E295EF70F0E031A1282F2F7081E090E029
:1018800001C0880F2A95EAF7982F9095932391A38A
:1018900092A1892B82A30C94340C9091270492FF7F
:1018A00006C0282F28712830F9F4877F846093FFC1
:1018B00006C0282F28712831F1F4877E8461209199
:1018C000280420FF06C0382F38713830D9F4877FBC
:1018D000816021FF06C0282F28712831D1F4877E2E
:1018E000816194FD877E0895282F24712430F9F6B4
:1018F0008B7F8860DCCF282F2471243101F78B7E09
:101900008861DDCF382F3171313019F78E7F8860D3
:10191000E0CF282F2171213121F78E7E8861E1CF20
:10192000CF93DF93EC0182389105A9F1D8F581338B
:10193000910509F496C048F58932910509F48AC0E9
:101940008A9709F495C0C11521E5D20708F0BCC0FB
:10195000C11530E5D30708F014C1C83ED10508F021
:101960009CC0C03ED10560F5C83AD10508F087C0DB
:10197000C53AD10508F0FDC0C130D10509F1209765
:10198000F9F0C430D105E0F440C08533910509F485
:101990005AC0C997C1F680912704837089F0C0EEC0
:1019A000D0E00EC0833E910599F170F4803E910520
:1019B00001F1823E910539F68091270482FD21C014
:1019C000CE01DF91CF910895863E910561F1873E6A
:1019D000910571F1843E910509F0B5CF80912804FD
:1019E00081FFEECF80912704C7EED0E084FD0DC0CB
:1019F000E7CF8091270480FD12C19091280490FFC9
:101A0000DFCFC3EED0E084FFDBCFD0E0C0E0D8CFA3
:101A10008091270482FD06C19091280490FDBFCFDC
:101A200084FFCECFF2CF8091270483FDDDCFC8CFD6
:101A30008091270483FDF9C09091280491FFF0CF95
:101A4000C4EED0E0BDCF8091270485FFB9CFC9E2B5
:101A5000D0E0B6CF8091270485FFB2CFC5E3D0E0B8
:101A6000AFCF8091270486FFABCFCAE2D0E0A8CFEA
:101A70008091270486FFA4CFC1E3D0E0A1CFCF3B64
:101A8000D10518F6C85AD0E0CC0FDD1FC859DE4F7B
:101A90000990D881C02DD46493CFC11540E2D407FA
:101AA00058F4C11581E0D80708F08ACFC03FD105AE
:101AB00008F4ABCFD06584CFC11590E4D90708F402
:101AC000A4CFDF70D06A7CCFC11525E5D20700F521
:101AD000C11534E5D30708F08AC0C11543E5D40722
:101AE00008F071C0C11582E5D80708F467C0CE01BF
:101AF0008370992721E030E002C0220F331F8A95BE
:101B0000E2F7C695C69580E2C89FE001112452C055
:101B1000C11599E5D907A8F4C11528E5D20708F041
:101B20006BC0C11536E5D30708F06FCF8C2F0E942C
:101B30004D0CC82FD0E0DC2FCC27CC27DF71D06232
:101B40003FCFC1154AE5D40708F45BC0CE019056DB
:101B50008115904208F059CF8D2F8F710E944D0C46
:101B600090E0982F882788279F719C012C2BE901F2
:101B7000E6CFC55AD0E0CB59DE4FC881D0E0D06463
:101B80001FCFCE01E4E096958795EA95E1F7837043
:101B90002C2F26952695237040E2249F9001112436
:101BA000382B8C2F8370C1E0D0E002C0CC0FDD1F3A
:101BB0008A95E2F7C22BD32BDC6802CFDC2FCC272F
:101BC000C16FD06AFDCECE018370992721E030E04D
:101BD00002C0220F331F8A95E2F7C695C69590E2A0
:101BE000C99FE0011124C22BD32BDA68E9CEDC2F88
:101BF000CC27C46FD06AE4CEDC2FCC27C06FD06A6C
:101C0000DFCE8C2F8F700E944D0C34E0D695C79597
:101C10003A95E1F7CF709C2FEC01D069D1CEC9E3A2
:101C2000D0E0CECEC2EED0E0CBCEC6EED0E0C8CE75
:101C30000C94AC098091970281111092970208953B
:101C40009091280492FD05C090919702981380937B
:101C50009702089580912D0490919602892B90917E
:101C60006002892B8093E801909197029923A1F05B
:101C7000892B8093E80180915E01882341F1809156
:101C8000270487FF24C08EE1EAEEF1E090E0815066
:101C900000F591110E941A0EE0911A04F0911B04B4
:101CA0003097E1F080915E01882359F080912704FC
:101CB00087FF07C08091E8018093E90185E0809368
:101CC000E8010280F381E02D88EE91E0099486E03E
:101CD000DBCF21912223D9F29F5FD9CF0895809144
:101CE0005E0290912D02981301C008958F5F877056
:101CF000FACF990F990F990F890F982F97708695A2
:101D00008695869523E0829FF0011124E75FFD4FC1
:101D100050E040E080E0219130E0092E02C036958D
:101D200027950A94E2F721703327042E01C0220F71
:101D30000A94EAF7822B4F5F5F4F4330510559F702
:101D40000895990F990F990F890F982F977041E077
:101D500001C0440F9A95EAF786958695869593E09B
:101D6000899FF0011124E75FFD4F30E020E070E033
:101D70005191DF011197CB01022E02C096958795F4
:101D80000A94E2F7817081958527842385278C93B7
:101D90002F5F3F4F2330310559F70895882341F0D5
:101DA000809590912D04892380932D040C942A0E04
:101DB0000895882339F090912D04982B90932D0449
:101DC0000C942A0E0895982F92959F7011F0892FE8
:101DD00094E0282F2695269511F09E5F822F8695F8
:101DE00009F09F5F892F0895CF92DF92EF92FF92C3
:101DF0000F931F93CF93DF936C017B0164E670E038
:101E000088E70E946930EC0197FD12C010E000E005
:101E1000F601E00FF11F849164E670E00E94E33068
:101E2000EC01892B29F40F5F1F4F0E151F0581F759
:101E30000E946631CE01DF91CF911F910F91FF90EB
:101E4000EF90DF90CF900895809116049091170441
:101E5000911103C091E089270895882369F062E019
:101E600070E089EF9EE00E94F40E892B19F08091BA
:101E7000160408951092160480911604EBCFCF93A8
:101E8000C0911604809117048823D1F00E94AC09F8
:101E9000605A75418F4F9F4F6093120470931304E3
:101EA0008093140490931504C11108C062E070E09F
:101EB00087EF9EE00E94F40E892B29F0C091160452
:101EC0008C2FCF91089581E080931604F7CF9091E5
:101ED0005204943029F58093290470932B04609365
:101EE0002A049093E9008FEF9091E800815095FDCE
:101EF00006C095ED9A95F1F700008111F5CF80911C
:101F0000E80085FF0DC050E040E063E070E089E24A
:101F100094E00E946F088091E8008E778093E8003B
:101F20000895BC0184E00C94670FBC0183E00C941D
:101F3000670F9C0184E08093E9009FEF8091E800A7
:101F4000915085FD06C085ED8A95F1F7000091114D
:101F5000F5CF8091E80085FF0CC050E040E066E0DE
:101F600070E0C9010E946F088091E8008E7780932D
:101F7000E8000895CF93DF93EC0180915E01882300
:101F8000B1F18091270487FF32C060E284E0809342
:101F9000E9008FEF9091E800815095FD06C095ED26
:101FA0009A95F1F700008111F5CF8091E80085FF47
:101FB0001BC080915E0170E050E040E0811104C0E0
:101FC00050E040E068E070E0CE010E946F08809130
:101FD000E8008E778093E80080E2FE01A0E3B4E0A1
:101FE00001900D928A95E1F7DF91CF91089568E015
:101FF00081E0CDCF81E08093E00080E28093D80043
:102000001092C9008FE19EE40197F1F700C0000033
:1020100087E090EBDC018093600690936106A093CB
:102020006206B093630688E19CE00FB6F894A89529
:10203000809360000FBE90936000FFCF60915A01C3
:102040008091050480FF20C08091590143E0849F66
:10205000C0011124855F9C4F539A2BB1277F3BB160
:1020600038605FB7F894FC01649FE00DF11D112406
:10207000BF0168177907D1F45FBF8FE594E001973E
:10208000F1F700C00000089580915B0190915C0120
:1020900023E0829FF0011124E55FFC4F8917A0F631
:1020A0001182108212828F5F3396F8CFFC0141912A
:1020B000CF01E8E03BB9000000C047FF2BB9440F57
:1020C000000000C000C000C02BB900C0EA9591F725
:1020D000D0CF8F929F92AF92BF92CF92DF92EF922A
:1020E000FF920F931F93CF93DF93EC018A81BB2460
:1020F000BA9480FD02C0BB24B394A0905D018C8192
:10210000811109C081E0B81228C08FEF8A0D809339
:10211000040481E08C83F12CE12C43E5842EEA1445
:10212000F8F00E941E108091040491E0B91262C080
:1021300081115BC080915D018150809304041C82F9
:10214000DF91CF911F910F91FF90EF90DF90CF9093
:10215000BF90AF909F908F90089510920404D9CFB4
:1021600000915B010E0D1F2D111DC801880F991FD5
:10217000080F191F055F1C4FF8011182108212828F
:1021800034E0C32ED12C912C80910404890D843528
:1021900044F1682D0E94AC33892F082E000C990B56
:1021A0008E159F05A9F4809108048C9DA0018D9D3A
:1021B000500D11245595479555954795473908F089
:1021C00046E9980160910704809106040E94870AFD
:1021D0009B0CF1E0CF1AD108B9F68FEFE81AF80A94
:1021E0009ECF87FFDACF8A0DD8CF81508093040429
:1021F000BC82A6CF90E0019660915D0170E00E94E4
:10220000BA33809304048C839BCFEF92FF921F9389
:10221000CF93DF93EC0110E0EE24EA94F12C60916F
:102220005D01161770F00E941E109A818C8190FF3C
:102230002AC08F5F8C83DF91CF911F91FF90EF9029
:10224000089520915B01422F410F5527551FCA0168
:102250009A01220F331F280F391F255F3C4F4091F1
:102260000804473908F046E970E0C7010E94BA3314
:10227000962F8C8160910704199F800D11240E9474
:10228000870A1F5FCCCF8150D5CF9091050490FF76
:1022900014C090915B0120915C0133E0939FF001A9
:1022A0001124E55FFC4F921710F00C941E108183EF
:1022B000608342839F5F3396F6CF0895CF93DF9379
:1022C00000D00F92CDB7DEB79091050490FF0DC0FE
:1022D000473908F046E99E012F5F3F4F0E94870A69
:1022E0004B8169818A810E9445110F900F900F9058
:1022F000DF91CF910895CF93DF93EC01E5E0F4E017
:10230000438162818C810E945E118C818F5F8C83FE
:10231000DF91CF910895CF93DF93EC01EC81F0E052
:10232000E95CF94F4491E5E0F4E0628181810E942B
:102330005E118C818F5F8C83DF91CF910895E5E0F2
:10234000F4E080818E7F80830E946A0AE8E0F3E0F7
:102350008281816082832FEF80E792E0215080406C
:102360009040E1F700C000000C941E109F92AF92C5
:10237000BF92CF92DF92EF92FF920F931F93CF9372
:10238000DF937C015B016A018091A00201E010E013
:102390008A3010F40AE010E0C1E0D0E0F894B50112
:1023A000C701F6010995982E0E94340C911004C0C3
:1023B00021960C171D076CF4892DDF91CF911F9189
:1023C0000F91FF90EF90DF90CF90BF90AF909F90D4
:1023D0000895CC9F9001CD9F300D300D112490E0D9
:1023E00080E045E34A95F1F70000019682179307D4
:1023F000C1F7D4CF80916D02811118C088EC909103
:10240000E30097FD10C0EFE3FCE93197F1F700C05E
:1024100000008150A1F782E080936D020E941F08A6
:102420001092520403C081E080936D0281E090918C
:102430006D02913011F080E0089508950F931F937D
:102440000E94FA11882321F01F910F910C94AC097E
:102450000E94AC0900911E0410911F0420912004D9
:1024600030912104600F711F821F931F1F910F91E4
:1024700008950E94FA11882351F0E0911A04F09116
:102480001B04309721F00190F081E02D099480E049
:1024900008951F93CF93DF93162F8A3031F481E094
:1024A000DF91CF911F910C9407138D3011F480E0D0
:1024B000F7CFC0915D04D0915E0496E0FE01AAE0E2
:1024C000B4E001900D929A95E1F7803EA8F186E084
:1024D000FE0111928A95E9F7C0915D04D0915E04E6
:1024E000111136C046E050E0BE018AE094E00E943F
:1024F00032349E012F553440892BA9F52A5F3F4F76
:1025000040915F06642F70E0C9010E948C33481B24
:10251000463010F4240F311D211572E0370710F0FA
:1025200030E020E0215A3B4F30935E0420935D045D
:10253000DF91CF911F910895F6E08F9FB001112494
:102540006954764F46E050E0CE010E941C34C4CF5F
:102550009E012A5F3F4FFE012E173F0719F280812F
:1025600080958193F9CFC90145E0969587954A9565
:10257000E1F741E050E0BA0102C0660F771F8A958B
:10258000E2F7CB016091100470911104862B972B18
:10259000B9016B5F7F4FE5E076956795EA95E1F7C6
:1025A00002C0440F551F6A95E2F7842B952B909338
:1025B000110480931004A2CF0F931F93CF93DF9346
:1025C000EC01FC0101900020E9F78F010150110995
:1025D000C017D10728F0DF91CF911F910F91089577
:1025E00060E089910E944912F3CF1F93CF93DF934C
:1025F000EC01162FFE018491811104C0DF91CF916F
:102600001F910895612F0E9449122196F3CFCF9315
:10261000382FE0915D04F0915E04EF55F440209175
:102620005F06622F70E0CF010E948C33281B822F3F
:10263000332369F066E00E94A033C82FC15010F424
:10264000CF91089560E080E20E944912F7CF9F0188
:10265000280F311D2115324018F080E0F0E0E0E055
:102660008E0F9F2F911D815A9B4F90935E048093F4
:102670005D04E6CFCF93DF93C7EAD2E060E0CE01FE
:102680000E945C342196C11584E0D807B9F7DF9128
:10269000CF9108956F927F928F929F92AF92BF9247
:1026A000CF92DF92EF92FF920F931F93CF93DF931E
:1026B00087E3C82E87E0D82E07ED10E0E801C05A66
:1026C000D10936011CC0F50185909490692DC70190
:1026D0000E945C34682DC70101960E945C3482E040
:1026E000A80EB11C82E0E80EF11CCE15DF0559F7EB
:1026F00080E1680E711C60960C171D0731F07E0199
:1027000080E1E81AF1085301DECF00561F4F80EA3E
:10271000C80ED11C073583E0180781F6DF91CF91F1
:102720001F910F91FF90EF90DF90CF90BF90AF90EF
:102730009F908F907F906F900895CF93C82F6FEFE9
:10274000811161E283E290E00E945C346FEFC1117D
:1027500069E084E290E00E945C346FEFC11167E2AF
:1027600085E290E0CF910C945C3480E00E949D1350
:1027700060E086E290E00E945C340E944A130E946E
:102780003A1381E00C949D13CF93C0912804C2FBAF
:10279000992790F9981781F080FBC2F9C09328041B
:1027A0006091270484E090E00E945C346C2F82E208
:1027B00090E0CF910C945C34CF9108950F931F93C8
:1027C000CF93DF9320E1629FE001112450E0440F9A
:1027D000551FC40FD51F30EA839FC00DD11D112492
:1027E000CE0187960E944834082F10E0102F002752
:1027F000CE0188960E9448349801282BC901DF91A8
:10280000CF911F910F910895462F843038F47A307C
:1028100028F4683018F4672F0C94DE1390E080E001
:102820000895CF92DF92FF920F931F93CF93DF9380
:102830006C0100915C0480916102082BC7E0D0E03C
:1028400010E0FC2EC8010C2E02C0959587950A94C5
:10285000E2F780FD0CC02197A0F7F12C8F2DDF91BE
:10286000CF911F910F91FF90DF90CF900895B60107
:102870008C2F0E9404140E94900C019761F3EECFFC
:10288000CF93DF93EC010E941114BE010E94041447
:10289000DF91CF910C94900CFC01808191810E947A
:1028A0004014292F2F7092959F7092509E3078F48B
:1028B000E92FF0E0EF57F94C0C94ED33803F19F01D
:1028C00020F4883E20F481E00895843FE1F380E025
:1028D0000895883EC0F3813FD1F7F5CF822F8695CA
:1028E00086958695089583E290E00E94483481326F
:1028F00089F484E290E00E944834893059F485E2FA
:1029000090E00E94483491E0873209F090E0892FEE
:102910008170089580E0FCCFCF92DF92EF92FF921A
:102920006B017C010E94710AB701A60188E090E06A
:10293000FF90EF90DF90CF900C946E34EF92FF9267
:102940000F931F93CF93DF9300D00F92CDB7DEB7D5
:10295000082FF62E142FE22E8091050480FF3DC033
:10296000E82FE695F0E0EE53FE4F90819093080338
:102970008E7F8230E1F5473908F046E99E012F5FEE
:102980003F4F6F2D802F0E94870A4B8169818A817A
:102990000E94451180910604801308C080910704AD
:1029A0008F1104C080910804811729F080910A03D7
:1029B000826080930A0300930604F0920704109348
:1029C0000804EE2051F06091050470910604809196
:1029D0000704909108040E948C140F900F900F90A0
:1029E000DF91CF911F910F91FF90EF90089592305A
:1029F00019F410910804CECF80910604963011F09E
:102A0000993041F6082FC6CFE5E0F4E0438121E19B
:102A1000421B08F440E021E0628181810C949E1405
:102A2000E5E0F4E0438121E1420F08F44FEF21E0BB
:102A3000628181810C949E14E5E0F4E0628121E1E1
:102A4000621B08F460E021E0438181810C949E14B4
:102A5000E5E0F4E0628121E1620F08F46FEF21E02C
:102A6000438181810C949E14E5E0F4E0818121E0B2
:102A70004381628188500C949E14E5E0F4E08181EA
:102A800021E043816281885F0C949E148091090447
:102A9000882319F081508093090460910504709196
:102AA000060480910704909108040C948C14809182
:102AB0000904833018F48F5F809309046091050442
:102AC0007091060480910704909108040C948C1472
:102AD000E5E0F4E083E0808311828FEF828386E972
:102AE00083831482A8E0B3E012968C9112978360DE
:102AF00012968C9360817181828193810C948C14E5
:102B000069EE7EEF90E080E00E947A3460E082E03F
:102B100090E00E945C3460E083E090E00E945C34CE
:102B20001092610260E084E090E00E945C3460E01A
:102B300082E290E00E945C3460E085E090E00E94D8
:102B40005C3460E086E090E00E945C346FEF87E0E8
:102B500090E00E945C3440E050E0BA0188E090E0F0
:102B60000E946E3460E08DE090E00E945C3440E0B2
:102B700050E0BA0188E190E00E946E3460E087E1A5
:102B800090E00E945C3440E050E0BA018CE190E0BB
:102B90000E946E3470E060E080E290E00E947A343F
:102BA00040E050E0BA0188E190E00E946E3480E09D
:102BB0000E949D130E94B51340E050E0BA018FE0DF
:102BC00090E00E946E3440E050E0BA0183E190E072
:102BD0000C946E34EF92FF920F931F93CF93DF9379
:102BE0007901C82F880FDD0B41155105A9F08AE046
:102BF0008C9FF0018D9FF00D1124E050FF4F8381D9
:102C0000948182599D4F228130E04217530708F486
:102C10009A01A9010E943F34CE010E94D832892B2B
:102C200011F501151105E9F08AE08C9FF0018D9FE7
:102C3000F00D1124E050FF4F458150E004171507B7
:102C400008F4A8018AE08C9FF0018D9FF00D1124FB
:102C5000E050FF4F6681778162597D4FC7010E9426
:102C60003F3481E001C080E0DF91CF911F910F914F
:102C7000FF90EF9008950F931F93CF93DF93CDB7FD
:102C8000DEB728970FB6F894DEBF0FBECDBF85E044
:102C9000E5E0F4E0DE01119601900D928A95E1F7EE
:102CA0008091080390910903A0910A038E839F836A
:102CB000A887288540919C0250919D0260919E02B8
:102CC00070919F023FB7F89480912304909124045F
:102CD000A0912504B09126043FBF841B950BA60B41
:102CE000B70B84369105A105B10510F42223C1F07C
:102CF00010E000E030E020E048E050E0BE016F5F0F
:102D00007F4F86E00E94EA15882369F00E94AC0993
:102D100060939C0270939D0280939E0290939F0209
:102D200010920A0381E028960FB6F894DEBF0FBE1A
:102D3000CDBFDF91CF911F910F9108950F931F93F6
:102D4000CF93DF9300D00F92CDB7DEB7809198027A
:102D500090919902A0919A02B0919B022FB7F8949A
:102D6000409123045091240460912504709126041D
:102D70002FBF481B590B6A0B7B0B81E04436510572
:102D80006105710508F480E090912D049983443623
:102D900051056105710520F420917A02291381E023
:102DA000909196029A83811106C081E020917B0266
:102DB000291301C080E0909197029B83811105C087
:102DC00080917C0211E08917C9F010E000E030E04A
:102DD00020E043E050E0BE016F5F7F4F85E00E943E
:102DE000EA15182F882351F00E94AC0960939802CD
:102DF0007093990280939A0290939B02812F0F9077
:102E00000F900F90DF91CF911F910F9108950F9325
:102E10001F93CF93DF9300D000D0CDB7DEB74091A2
:102E200092025091930260919402709195022FB793
:102E3000F8948091230490912404A0912504B091EA
:102E400026042FBF841B950BA60BB70B11E084360D
:102E50009105A105B10518F10E941E126E5F7F4F0A
:102E60008F4F9F4F69837A838B839C8310E000E0B0
:102E700030E020E044E050E0BE016F5F7F4F84E02F
:102E80000E94EA15182F882351F00E94AC09609324
:102E90009202709393028093940290939502812FF3
:102EA0000F900F900F900F90DF91CF911F910F9186
:102EB00008957F928F929F92AF92BF92CF92DF92AE
:102EC000EF92FF920F931F93CF93DF930F92CDB7A3
:102ED000DEB7762E4A015901680101E010E09E013B
:102EE0002F5F3F4F50E040E070E060E00E94EA1545
:102EF000182F882309F44BC0F4014081518162816D
:102F000073812FB7F8948091230490912404A091A9
:102F10002504B09126042FBF841B950BA60BB70B7D
:102F200084369105A105B10538F4B701C6010E94A8
:102F30004E0A9981891759F18701950150E040E0C7
:102F400070E060E0872D0E94EA15B82EB701C60137
:102F50000E944E0A11E09981981310E01B2139F06C
:102F60000E94AC09F4016083718382839383812F73
:102F70000F90DF91CF911F910F91FF90EF90DF9015
:102F8000CF90BF90AF909F908F907F900895A701B2
:102F9000B601C5010E943F34EACFCF92DF92EF9293
:102FA000FF920F931F93CF93DF9300D000D00F9227
:102FB000CDB7DEB76B0185E0E82EF12C0FE612E00D
:102FC0009E012F5F3F4F4AE852E061E080E00E949F
:102FD0005917882349F095E0FE013196A5E8B2E043
:102FE00001900D929A95E1F795E0E5E8F2E0D601BF
:102FF00001900D929A95E1F70F900F900F900F901E
:103000000F90DF91CF911F910F91FF90EF90DF9084
:10301000CF90089590E080E00E945634893E9E4F04
:1030200011F40C94731480E008951F920F920FB660
:103030000F9211242F933F934F935F936F937F933E
:103040008F939F93AF93BF93EF93FF938091E10092
:1030500082FF09C08091E20082FF05C08091E100FB
:103060008B7F8093E1008091DA0080FF24C0809103
:10307000D80080FF20C08091DA008E7F8093DA0034
:103080008091D90080FF9BC080E189BD82E189BD2C
:1030900009B400FEFDCF81E08093520480912C049E
:1030A000811109C00E941F080E94EA088091E20075
:1030B00084608093E2008091E10080FF17C08091DE
:1030C000E20080FF13C08091E2008E7F8093E200D7
:1030D0008091E20080618093E2008091D80080625C
:1030E0008093D80019BC85E0809352048091E10060
:1030F00084FF29C08091E20084FF25C080E189BD62
:1031000082E189BD89B5982F917080FFFBCF8091B6
:10311000D8008F7D8093D8008091E1008F7E8093CE
:10312000E1008091E2008F7E8093E2008091E200D6
:1031300081608093E20080915304882309F445C0A4
:1031400084E0809352048091E10083FF27C0809146
:10315000E20083FF23C08091E100877F8093E1003C
:1031600082E080935204109253048091E1008E7F9C
:103170008093E1008091E2008E7F8093E200809155
:10318000E20080618093E20042E060E080E00E9423
:10319000B8088091F00088608093F000FF91EF9173
:1031A000BF91AF919F918F917F916F915F914F915F
:1031B0003F912F910F900FBE0F901F90189519BC43
:1031C0001092520410922C0476CF8091E30087FD78
:1031D00093E090935204B7CF78941F921FB61F923A
:1031E00011248F939F93AF93BF9380912304909169
:1031F0002404A0912504B09126040196A11DB11DBF
:103200008093230490932404A0932504B093260470
:10321000BF91AF919F918F911F901FBE1F901895E6
:103220009C014FB7F8948091230490912404A091BD
:103230002504B09126044FBF821B930B08952FB72E
:10324000F8948091230490912404A0912504B091D6
:1032500026042FBF08950E94FA1181110C941F19A2
:103260000E941E12CB01089560910504669570E0DE
:1032700041E050E088E591E00E942534892B19F463
:1032800081E0809309030E942B199093030380939C
:10329000020380910A03846080930A030895909149
:1032A000050490FF3BC0917081112EC092609093F5
:1032B000050480910A03816080930A03662351F01C
:1032C00060910504709106048091070490910804B0
:1032D0000E948C1460910504669570E041E050E016
:1032E00088E591E00E942534892BA9F00E946A0AA2
:1032F00081E08093050320E0409108046091070479
:10330000809106040C949E14853110F09862CFCF02
:10331000880F982BCCCF0E943419EACF0895809162
:1033200005048695815009F484E161E00C944F19FD
:103330008091050486958F5F853108F081E061E01A
:103340000C944F199091050490FF07C0969598171B
:1033500020F0961710F40C94981961E00C944F1912
:103360000E941F199C019091FE028091FF02982BF0
:1033700021F03093FB022093FA0290910003809198
:103380000103982B21F03093F9022093F802E09189
:103390001A04F0911B04309749F082E08093FC02FC
:1033A0000480F581E02D8CEF92E00994089590E07F
:1033B00080E00E94F80990E080E00E94E20910920B
:1033C0009602109260020E942A0E86E0ECEFF2E074
:1033D000DF011D928A95E9F71092F6021092F5022C
:1033E0001092F7020C94B01980935C040C94D719D6
:1033F00080915C04982F9670963019F488600C9434
:10340000F419877FFCCF21E030E001C0220F8A95BC
:10341000EAF7209580915C0482230C94F419909132
:103420005F028095892380935F02282F277039F4EB
:10343000282F082E000C330B9217130621F49091BD
:10344000280492FF07C08595859585950E94031AEB
:1034500010925F02089521E030E001C0220F8A95AA
:10346000EAF780915C04822B0C94F419809361023A
:103470000C94D71980915E01EAEEF1E0882359F0AF
:103480008091270487FF07C08EE1DF011D928A9596
:10349000E9F70C94D71986E0F8CF1F93CF93DF9309
:1034A000CDB7DEB7AA970FB6F894DEBF0FBECDBF7B
:1034B00084E594E02091F100DC012D93CD01B4E08E
:1034C0008C359B07B9F780915504833009F471C09E
:1034D000B8F4813009F448C0823009F4B4C0809156
:1034E000E80083FF3CC180915404909155049A30C8
:1034F00008F035C1E92FF0E0E157F94C0C94ED33B9
:103500008A3009F48FC08B3009F470C0893039F7E4
:1035100080915404813219F7809158049091590494
:10352000009711F00297D9F68091E800877F809389
:10353000E8008091E80082FF37C09091F30080910D
:10354000F200029729F48091F1008B7F813021F401
:103550008091F10080932F048091E8008B77809315
:10356000E8000E949908BBCF80915404813A09F089
:10357000B6CF8091E800877F8093E800809158045F
:1035800090915904892B61F460E280E394E070E04B
:103590000E944B098091E8008B778093E8009FCFD1
:1035A00060E090E080E0F3CF809152048111C1CFC0
:1035B00096CF80915404813A09F091CF80915804BC
:1035C00090915904892B09F08ACF8091E800877F78
:1035D0008093E8008091E80080FFFCCF80915E013D
:1035E0008093F1008091E8008E77B9CF80915404E8
:1035F000813209F074CF8091580490915904892B3D
:1036000009F06DCF8091E800877F8093E8000E94E9
:1036100099088091560480935E0110922D040E94B7
:103620003A1A5DCF80915404813209F058CF8091CD
:10363000E800877F8093E8000E94990880915704F2
:1036400080932E044CCF80915404813A09F047CFE7
:103650008091E800877F8093E8008091E80080FFF8
:10366000FCCF80912E04BCCF803899F0823809F0CD
:1036700076C0809158048F70873008F070C08093B6
:10368000E9008091EB0085FB882780F91092E90022
:1036900006C08091500490915104911182609091E4
:1036A000E800977F9093E8008093F1001092F1007A
:1036B0008091E8008E77B5C1882309F4A2C18230D9
:1036C00009F04DC0809156048111A6C18091580423
:1036D0008F702FEF280F263008F041C08093E9004B
:1036E0002091EB0020FF98C1933031F48091EB00E2
:1036F00080628093EB0090C19091EB009061909379
:10370000EB0021E030E001C0220F8A95EAF7209318
:10371000EA001092EA008091EB008860EACF811104
:103720001EC0109156041F778091E3008078812B92
:103730008093E3008091E800877F8093E8000E94F7
:1037400099088091E80080FFFCCF8091E3008068B9
:103750008093E30082E0111183E080935204809112
:10376000E80083FF0AC08091E800877F8093E8002B
:103770008091EB0080628093EB00AA960FB6F894DC
:10378000DEBF0FBECDBFDF91CF911F91089580584E
:10379000823028F720915604309157042C3DE3E005
:1037A0003E07A1F583E08A838AE289834FB7F894C4
:1037B000DE01139620E03EE051E2E32FF0E050936B
:1037C0005700E49120FF03C0E295EF703F5FEF7078
:1037D0008E2F90E0EA30C0F0C7968D939D932F5FB7
:1037E000243159F74FBF8091E800877F8093E8002C
:1037F0006AE270E0CE0101960E944B098091E800D8
:103800008B778093E800ABCFC096E7CF80915804C8
:1038100090915904432F55274330510509F44AC06C
:1038200078F54130510509F47AC08BE590E0EBEF73
:10383000FEE04230510509F092CF2091E800277F49
:103840002093E80020915A0430915B04821793077B
:1038500008F49C0140E02115310509F065C04111D3
:1038600063C08091E80082FDC9CF80915204882313
:1038700029F2853019F28091E80083FFF2CFBECFA4
:103880004132510509F43CC04232510509F067CF7D
:103890008330910508F063CFFC01EE0FFF1FE65265
:1038A000FE4F0190F081E02D89529E4FDC018C91FA
:1038B00090E01AC0332721303105D1F021153105B0
:1038C00061F02230310509F04ACFE8E6FFE0E491EB
:1038D0008E2F90E0E8E6FFE007C0E4E8FFE0E49127
:1038E0008E2F90E0E4E8FFE0009709F438CFA5CFF1
:1038F000E6E7FFE0E4918E2F90E0E6E7FFE0F4CF0B
:103900008330910508F02BCF880F991FFC01E052FE
:10391000FE4F0190F081E02D89E090E08ECF82E1B2
:1039200090E0E6E5FFE089CF80915204882309F416
:1039300065CF853009F462CF8091E80083FD5ECFCA
:103940008091E80082FD8DCF8091E80080FF83CFD9
:103950009091F3008091F2002115310519F0883023
:10396000910550F041E0089709F040E08091E800AF
:103970008E778093E8006FCF44914093F1003196A9
:10398000215031090196E8CF803809F0E8CE8091C6
:10399000E800877F8093E800809153048093F100D2
:1039A00087CE8111DCCE10915604123008F0D7CEAC
:1039B0008091E800877F8093E800109353040E9471
:1039C0009908112311F084E005C08091E30087FD80
:1039D000FACF81E08093520442E061EC81E00E94E2
:1039E000B80842E261EC84E00E94B80842E261EC6F
:1039F00082E00E94B80842E260EC83E00E94B808CE
:103A0000AECE80915604813009F0A9CE81E093308A
:103A100009F080E0809351041092E9008091E80061
:103A2000877F8093E8000E94990899CE1F920F9299
:103A30000FB60F9211242F933F934F935F936F9381
:103A40007F938F939F93AF93BF93CF93DF93EF9326
:103A5000FF93D091E900DF708091EC00C82FC17016
:103A600080FDC0E81092E9008091F000877F80938C
:103A7000F00078940E944D1A1092E9008091F000B5
:103A800088608093F000CD2BCF70C093E900FF9148
:103A9000EF91DF91CF91BF91AF919F918F917F91E6
:103AA0006F915F914F913F912F910F900FBE0F90AB
:103AB0001F9018958823B1F19CEF980F913A38F434
:103AC000682F88EE91E00E94B8090C942A0E90E2CB
:103AD000980F983088F4877021E030E0A90102C087
:103AE000440F551F8A95E2F7CA01809590912D04E5
:103AF000892380932D04E9CF9BE5980F933020F420
:103B000090E080E00C94F80998E5980F973120F444
:103B100090E080E00C94E209803F20F00E941D0BB1
:103B20000C94B0190895CF93C82F882309F49CC032
:103B30008CEF8C0F813A08F064C080915E0188237D
:103B4000D1F18091270487FF36C0EC2FE695E695EA
:103B5000E695F0E0E851FE4F828190E04C2F4770EF
:103B600021E030E002C0220F331F4A95E2F78223A2
:103B70009323892B61F06C2F88EE91E00E94B809A5
:103B80000E942A0E22C08091270487FF22C0EC2FBA
:103B9000E695E695E695F0E0E851FE4FC77021E026
:103BA00030E001C0220FCA95EAF78281822B82831E
:103BB000CF910C942A0EEAEEF1E080EF91E0219192
:103BC000C217C9F28E179F07D1F780915E0181114C
:103BD000DACFAAEEB1E0EFEF80E09D91C91741F393
:103BE000EF3F19F4911101C0E82F8F5F8630A9F7DC
:103BF000EF3FF1F20E2E000CFF0BE851FE4FC28397
:103C0000D7CF80E28C0F883068F4C77021E030E0B5
:103C100001C0220FCA95EAF780912D04822B809370
:103C20002D04C6CFEBE5EC0FE33040F4F0E0EB59A8
:103C3000FE4F808190E0CF910C94F809E8E5EC0FFD
:103C4000E73150F4F0E0EE0FFF1FE859FE4F80819E
:103C50009181CF910C94E209C03F30F08C2F0E94EB
:103C6000D80BCF910C94B019CF9108951F93CF9397
:103C7000DF93182FD0E0C0E0893311F4C0E5D0E025
:103C8000812F0E94931D209731F4812FDF91CF91D6
:103C90001F910C945A1D8FE99FE00197F1F700C026
:103CA00000002197F0CFCF92DF92EF92FF920F9317
:103CB0001F93CF93DF930F92CDB7DEB7EE24E3943B
:103CC000F12C05E712E09E012F5F3F4F4EE852E0D6
:103CD00063E082E00E945917082F882331F1C090D9
:103CE000AE028C2D90E09C012C543D4F790119813E
:103CF000F9018081181BD12E80E00CC0DA94F70105
:103D000080818F5F8083F1E0FC1518F08AEA0E94C1
:103D1000361E802F1D1494F3912F17FD90E0191B70
:103D200011110EC081110E94180E802F0F90DF918B
:103D3000CF911F910F91FF90EF90DF90CF9008955A
:103D40001F5FF701808181508083F1E0FC1518F03E
:103D500089EA0E94361E802FE3CF8F929F92AF9206
:103D6000BF92CF92DF92EF92FF920F931F93CF9368
:103D7000DF93CDB7DEB72F970FB6F894DEBF0FBE37
:103D8000CDBF8E010F5F1F4F8AE0D8011D928A952B
:103D9000E9F788E9C82E81E0D82EF12CE12CAA247D
:103DA000A394B12CF60181916F018F3F09F44AC0B1
:103DB000F894E82FE295EF70F0E021A18F70A50153
:103DC00002C0440F551F8A95E2F7CA01922F982B23
:103DD00091A392A18095892382A30E94340C00C0F4
:103DE000E2EAF1E030E020E0912C41914F3F09F40C
:103DF0007FC0A42FA295AF70B0E090968C9190E018
:103E00004F7002C0959587954A95E2F780FD70C086
:103E10008A2D022E01C0880F0A94EAF7982A2F5F94
:103E20003F4F2830310509F7F601319780818F3FE8
:103E300011F00E94360C50EA5A95F1F7F801EE0D98
:103E4000FF1D90828FEFE81AF80A95E0E916F10459
:103E500009F0A8CF4AE050E0B80181EA92E00E9460
:103E600032347C01892B41F08AE0F801A1EAB2E00A
:103E700001900D928A95E1F71091AC02E114F104E2
:103E8000C9F181E0809364020E941F19909363023C
:103E90008093620280916202909163020E941019E5
:103EA000059778F0A1EAB2E0E12FF0E0E551FD4F8F
:103EB00086EA92E02D9121938A179B07D9F71092F9
:103EC000640281E090E0EF28C9F02F960FB6F894D5
:103ED000DEBF0FBECDBFDF91CF911F910F91FF903D
:103EE000EF90DF90CF90BF90AF909F908F9008950C
:103EF00080E094CF809164028111CCCF0E94FA11AE
:103F0000B82EE091AC028E01055F1F4F882309F4A3
:103F1000B8C085E0D8011D928A95E9F7F0E09F01CD
:103F200025513D4F79018091A002AE01405F5F4F66
:103F30006A018A3008F07DC04DEC57E1B801C70135
:103F40000E94B611882309F48BC043E55EE1B801F5
:103F5000C7010E94B611882309F482C047E057E1E7
:103F6000B801C7010E94B611882309F479C04EE94F
:103F700056E1B801C7010E94B611882309F470C048
:103F80004BE356E1B801C7010E94B611882309F43A
:103F900067C01092A002E091AB02F0E0AF01455182
:103FA0005D4FD80110E0FA019191AF018D91981702
:103FB00031F09F0121503109F90180831B2DAC158F
:103FC000BD0589F780916702909168020E941019DF
:103FD000893E934060F16091B902E62EF12C66278C
:103FE00077276E197F09072E000C880B990B0E940A
:103FF000453527EA39E747E45DE30E9412364B0175
:104000005C01B701FF0C880B990B0E9445359B01A1
:10401000AC01C501B4010E9491340E941435609333
:10402000B9020E941F199093680280936702812F42
:104030004CCF80916502909166020E941019843FD6
:10404000914008F079CFE091AB02F0E0E551FD4FEF
:10405000D80111921D92CA16DB06D9F71B2DB2CFDB
:104060008091A0028F3F31F08F5F8093A0028A3051
:1040700008F491CF0E941F19909366028093650205
:10408000E2CFF0E0E551FD4FF89485E0AFE6B2E015
:1040900001900D928A95E1F765E070E08FE692E07D
:1040A0000E944E0A80936E020E94340CF894E091B4
:1040B000B702F0E0EC54FD4F80818B87809375024E
:1040C00061E070E0C8010E944E0A809374020E9471
:1040D000340CF894C0907602D0907702E090780289
:1040E000F09079028091690290916A02A0916B022E
:1040F000B0916C02C816D906EA06FB06D1F0C09250
:104100006902D0926A02E0926B02F0926C020E9405
:10411000FA1181110EC00E94AC09C61AD70AE80A2A
:10412000F90AC0921E04D0921F04E0922004F0927B
:1041300021040E94340CF89480917A0280932D041B
:1041400080917B028093960280917C020E94200ED7
:104150000E94340CF89480918402882379F180FFC6
:104160000DC080917D0280FF2DC09091050491606B
:104170009093050460E086950E944F198091840217
:1041800081FF09C020E04091800260917F02809110
:104190007E020E949E148091840282FF06C080915C
:1041A0008302882391F00E9434198091840283FF56
:1041B00003C081E080930503109284020E94340CB6
:1041C00080E083CE0E949F11D9CF0E946A0AEDCF72
:1041D0003F924F925F926F927F928F929F92AF9297
:1041E000BF92CF92DF92EF92FF920F931F93CF93E4
:1041F000DF9300D000D00F92CDB7DEB77C01FC0179
:1042000083819481892B31F08081918189238F3F33
:1042100009F0DFC40F900F900F900F900F90DF9177
:10422000CF911F910F91FF90EF90DF90CF90BF90B3
:10423000AF909F908F907F906F905F904F903F9046
:1042400008950E941114182F682F89819A810E9465
:10425000A10E69817A81812F0E9404148C01F701DB
:104260008281882309F463C0C80190568115F0E269
:104270009F0750F0905E811520E1920728F0915C35
:1042800081159F4108F08CC0C80199279C012450DA
:1042900031092432310520F08B970E9708F047C082
:1042A00080916702909168020097D9F10E941019DD
:1042B0009C0150E040E060E67AEE80E090E00E94F1
:1042C000CE33CA01B90125E030E040E050E00E9461
:1042D000CE33C090B9022F3F310519F010F02FEF07
:1042E00030E0D12C2C193D09B90190E080E00E940A
:1042F000433527EA39E747E45DE30E9412360E941E
:10430000FD344B015C01B601DD0C880B990B0E945A
:104310004535A50194010E9491340E9414356093A3
:10432000B9020E941F199093680280936702F701F7
:104330008281882309F4E3C3C80182519F454097D5
:1043400008F0CCC38FEF93E00E944834025157EA43
:10435000852E52E0952E8823C9F180915F028770E7
:1043600009F458CFF7018281882309F453CF82E002
:104370000F900F900F900F900F90DF91CF911F91A2
:104380000F91FF90EF90DF90CF90BF90AF909F90F4
:104390008F907F906F905F904F903F900C940F1A8A
:1043A00090E080E00F3F110511F008F06FCFC801D9
:1043B0006DCF8114F4E09F0681F2C4010E9448345D
:1043C000811101C001502FEF821A920A0111F1CF21
:1043D0001C821B82442443944AE0342E84010F5FE4
:1043E0001F4FC4010E94483489831A82882309F42C
:1043F000B4CF9FEF980F9330F8F48A83498232E06C
:10440000830E911CC8010E9448348B83882309F4D1
:10441000A4CF8E010F5F1F4FF80120812223F1F2FC
:10442000213009F043C091818281913039F40E5FCF
:104430001F4F0E94361E08C04801EBCF923039F45E
:104440000E5F1F4F0E94931D0F5F1F4FE5CF9330EC
:1044500029F40E5F1F4F0E945A1DF6CF943019F0B9
:104460000F5F1F4FF1CF0E5F1F4F30E020E0B8010C
:104470006F5F7F4FF80141818053990B8A3091051E
:1044800050F02150310900F38FE99FE00197F1F7D7
:1044900000C00000F6CF329EF001339EF00D1124D3
:1044A0009C012E0F3F1F842F8B01E1CFE22FF0E004
:1044B000EC50FE4F5490822F86958695869590E01D
:1044C000FC01EC51FE4F64902770712C022E02C04B
:1044D000759467940A94E2F7E1E06E227724FC0178
:1044E000EC52FE4FA490B12C022E02C0B594A794BA
:1044F0000A94E2F7F1E0AF22BB24FC01EC53FE4F3B
:10450000C490D12C02C0D594C7942A95E2F721E03B
:10451000C222DD246114710419F081EE0E94931D02
:10452000A114B10419F086EE0E94931D852D0E94FE
:10453000361EAB2819F086EE0E945A1D672819F026
:1045400081EE0E945A1DCD2809F47ECF8CE271CFF6
:1045500081E00E942B1A0E94F819FFCE81E00E9490
:10456000031AF9CF82E0F5CF82E0F9CF043CFCE5F5
:104570001F0709F47BC044E355E16DE375E1053C99
:104580001C4509F0E2C20E94640AE7CE083C3CE503
:10459000130709F47AC008F473C0093CECE51E0760
:1045A00009F478C040E155E164E075E10A3C1C453E
:1045B00051F3CBC2003D2CE5120709F480C0A8F4EA
:1045C0000D3C9CE5190709F474C008F46DC00E3C5D
:1045D000FCE51F0709F470C068E086E00F3C1C454D
:1045E00009F0B3C20E94A219B8CE063D3CE51307FC
:1045F00038F4023D1C4508F0B0CE64E18FE0F2CF04
:104600000D351D4509F4A9CEA0C28091050480FF97
:1046100020C08E7F8093050460910504709106048C
:1046200080910704909108040E948C140E946A0AE9
:1046300080910A03816080930A03EFEFF0E722E0A4
:10464000E150F0402040E1F700C000000E941E1041
:1046500084CE81608093050461E086950E944F19A5
:104660007CCE4FE859E168E979E18DCF48E959E11D
:104670006FE879E188CF4DE355E164E375E183CFDD
:104680004CE155E168E275E17ECF48E255E16CE12D
:1046900075E179CF44E055E160E175E174CF46E41E
:1046A00055E167E575E16FCF47E555E166E475E1F2
:1046B0006ACF61E081E0D2CF65E082E093CF6EE027
:1046C00089E090CF0B353DE5130758F401158CE5D3
:1046D0001807C9F00E3D1C4509F037C20E9480152D
:1046E0003CCE0B35EDE51E07E9F00C351D4509F014
:1046F0002CC28091280482FB882780F991E08927C9
:104700000E94C41322C210922D040E943A1A2FEF65
:1047100034E38CE0215030408040E1F700C00000DD
:104720000E94FA0F80E0ECCFC8010E94790ED82ECB
:104730001BC2212F2F70C22E107F19F0C29490EF50
:10474000C922DD20C9F0CC2069F080E2800F8830DA
:1047500010F081100BC080912D04C82AC0922D0446
:104760000E942A0E802F0E94931D18C080919602ED
:10477000C82AC0929602F4CF802F0E945A1DCC20E6
:1047800069F0C094005E083010F081103CC0809148
:104790002D04C822C0922D040E942A0EE92DE85053
:1047A000FF0B349710F40E943912AA2009F432CD7D
:1047B00080915F0280FD2ECDF7011282859585954F
:1047C00085950E942B1AC7010E94E82080915F0204
:1047D0008595859585950F900F900F900F900F9070
:1047E000DF91CF911F910F91FF90EF90DF90CF90CD
:1047F000BF90AF909F908F907F906F905F904F9001
:104800003F900C94031A80919602C822C09296029F
:10481000C3CF312F3F70B32E107F103219F0B294F6
:1048200080EFB822882071F081E0881641F1DD2008
:1048300099F1CC2051F1F701858180FF93CF8F70E2
:10484000858323C0DD2071F0809197028B29C110F0
:1048500003C00E94D90EA2CF91E0C912FACF0E94E4
:10486000200E9CCFC11006C00E941A0E8B2D0E94F4
:10487000CE0E94CFE1E0CE1609F490CFF5CFDD2037
:1048800031F0F5E0FC1508F489CF8B2DE2CF24E060
:104890002C1508F483CFEACFCC2041F3F9E38F1233
:1048A00016C12FEF37EE83E0215030408040E1F712
:1048B00000C000000CC1812F86958695837061F041
:1048C000813009F06BCFC8019370D11002C090E025
:1048D00080E00E94E20962CFC8019370D11002C04B
:1048E00090E080E00E94F80959CF802FDD2029F068
:1048F0000E94D80B0E94B01951CF0E941D0BFACF15
:10490000812F837089F5D11049CF402F429546956C
:104910004770440F440F802F8F70042E01C0880F02
:104920000A94EAF7202F207104FF07C02FE030E03F
:1049300001C0220F4A95EAF7209516951695137037
:10494000123069F050F430916102113029F0822B5D
:1049500083230E94361A22CF832B822BFACF282B57
:10496000809161028227F5CF8695DD2011F0812F9D
:104970008170882309F412CF402F429546954770E5
:10498000440F440F802F8F70042E01C0880F0A94AB
:10499000EAF7202F207104FF07C02FE030E001C0AC
:1049A000220F4A95EAF72095169516951370123046
:1049B00069F050F430915C04113029F0822B83238C
:1049C0000E94F419EBCE832B822BFACF282B8091F7
:1049D0005C048227F5CF1F70DD2029F0812F0E9413
:1049E0002B1A802F36CF802F0E94CE0E812F0E944F
:1049F000031AD4CE802F92EF891609F448C0981577
:104A000070F0E0EF8E1629F1F1EF8F16C1F1DD2085
:104A100009F458C0C110A6CE812F8F7135C023EF85
:104A20008216D1F134EF8312F2CFDD2009F43FC0BA
:104A30001F71812F0E942B1A8091280482FD07C0CC
:104A4000E8E01E9FC0011124836080935F02812FE4
:104A50001BC0DD2079F084E08C1508F49FCE1F7117
:104A600081E090E001C0880F1A95EAF790915C040C
:104A70008927A6CF95E09C1508F490CEF0CF812F22
:104A80008F71DD2009F4B3CF0E942B1A87CE812FBE
:104A90008F71DD20C9F3ABCF80E0DD2009F490CF2A
:104AA0001F7181E001C0880F1A95EAF789CF81E074
:104AB0000E940F1AF1E0FC1508F070CE82E00E940F
:104AC0000F1A6CCECC2039F0893309F4EACE802F4E
:104AD0000E945A1D63CE812F8F7189CF0031FFE56F
:104AE0001F0709F435CD01312FE5120709F43ACD3E
:104AF0000A353DE5130709F0E5CD81E001CE00312F
:104B00003FE5130709F42ACD01318FE5180709F4B1
:104B10002BCD80912D0482720B3C9CE5190709F482
:104B2000BECD08F047CD063CFCE51F0709F4A3CD38
:104B300008F02CCD033C3CE5130709F492CD08F0B6
:104B400015CD023C1C4509F460CDF701828100813E
:104B50001181882309F4E8CDC8010E941114D82ED0
:104B6000682FC8010E94A10EB8018D2D0E94041467
:104B70000E94900C8C01882EF701D280C580C294CF
:104B80003FE0C32280915F028770A1F0AD2CDD2051
:104B900091F0812F807F803421F080E2800F883077
:104BA00048F082E00E940F1A80915F028770AA2469
:104BB000A3948111A12C912E92942FE09222FBE0DC
:104BC000F91508F4EBCDE92DF0E0E756F94C0C941B
:104BD000ED3385E0DE01119601900D928A95E1F7A3
:104BE000F701228189819A8121112BCB0E94790EB4
:104BF000182F2FCB1F93CF93DF9380912C02807FB0
:104C0000A9F480912902882389F080915E02D091D5
:104C10002D026091270270912802A0912A02B09182
:104C20002B02C62FC72316E0D81304C0DF91CF9103
:104C30001F91089590E0109711F0CF3F19F401965D
:104C40008770F2CF189F9001199F300D1124F90140
:104C5000E25DFD4F41814713F2CF40814613EFCF14
:104C600042814111ECCF438154814A1B5B0B483C8C
:104C7000510528F780912C028F70806180932C025F
:104C8000F901ED5CFD4F80818F708061808387E248
:104C900092E00E94E820DF91CF911F910C946F0E5B
:104CA000AF92BF92CF92DF92EF92FF920F931F933A
:104CB000CF93DF93CDB7DEB761970FB6F894DEBF21
:104CC0000FBECDBF8C0185E0F801DE011D9601907D
:104CD0000D928A95E1F7F801E28087E2A82E82E042
:104CE000B82E60912A0270912B026115710509F4AA
:104CF00032C19091270240912802892F84238F3F4F
:104D000009F429C120813181C380D480F090290227
:104D1000F601E61BF70BFF2009F4E8C080912C0296
:104D2000582F507FE83CF10508F0ABC0511177C017
:104D3000FE2C431321C092131FC0E1101DC08F70C1
:104D4000806180932C02C5010E94E82080912C0292
:104D5000F80185838F2D61960FB6F894DEBF0FBEE4
:104D6000CDBFDF91CF911F910F91FF90EF90DF901A
:104D7000CF90BF90AF900895CD2829F0822F832344
:104D80008F3F09F003C180E0F82FF170DF2E80FF24
:104D90003CC080915E0240912D0256E0841315C004
:104DA0002D873E878D859E850E944014292F229550
:104DB0002F702230F0F0243018F59F70F1F0F801D8
:104DC0009581907FD1F4D12C1EC090E0589FF001C6
:104DD000599FF00D1124E25DFD4F6181361306C02D
:104DE0006081261303C06281E6120FC001968770AE
:104DF000D5CF9F7011F0882331F3805E883018F38F
:104E0000C8010E94E820FD2CA5CFEE2009F4A2CF16
:104E100080912C02816080932C02F12C9BCF431354
:104E200006C0921304C0F801EE2009F479C0C8014D
:104E30000E944C14882309F1EE20F9F080912C0295
:104E4000803270F0209127023091280238872F831A
:104E50001986DB86CA868C87CE0107960E94E820D9
:104E600086E0F801A7E2B2E001900D928A95E1F7A1
:104E70000E94FA25FF24F3946DCFC8010E94E82018
:104E8000F9CF51110AC087E292E00E94E82086E043
:104E9000F50111928A95E9F7C0CF43130FC0921321
:104EA0000DC0E1100BC0F8018583C8010E94E82005
:104EB00086E0F50111928A95E9F74CCFC8010E946E
:104EC0004C148823D1F2EE20C1F280912C02803262
:104ED00038F220912702309128023A8329831B82DD
:104EE000DD82CC828E83CE010196B8CFE83CF105FD
:104EF000F8F6FE2CEE2009F243131FC092131DC0DA
:104F000080912C0280FD10C0982F907F69F0F801ED
:104F10008583903F31F0982F907F905F8F70892B21
:104F20008583C8010E94E82086E0F801A7E2B2E08C
:104F300001900D928A95E1F70DCFC8010E944C14A3
:104F400081118ECF80912C02816080932C02C80148
:104F50000E94E820FFCEEE2009F48FCFC8010E9406
:104F60004C14F82E882309F488CF86E0F801A7E2D4
:104F7000B2E001900D928A95E1F78091270290911D
:104F800028020E9440140E94FA25E4CE81E08E257A
:104F9000FBCE1F93CF93DF93CDB7DEB767970FB6E6
:104FA000F894DEBF0FBECDBF4B8B5C8B6D8B7E8BC1
:104FB0008F8B6111109296021A8A198A85E0FE0180
:104FC0007396DE011D9601900D928A95E1F786E0B9
:104FD000FE013D96DE01179601900D928A95E1F74C
:104FE000CE0107960E945026882389F016E0809112
:104FF0005E0290912D0289134BC067960FB6F8940C
:10500000DEBF0FBECDBFDF91CF911F91089586E027
:10501000FE013796DE01119601900D928A95E1F717
:105020008A859B85892B11F38F81988589238F3FF2
:10503000E9F220912D0230E0C9010196877099278D
:1050400040915E024817190681F410922D040E94C7
:105050003A1A10922D0210925E0286E0E7E2F2E028
:10506000DF011D928A95E9F7C1CF96E0929FD001AA
:10507000939FB00D1124A25DBD4FFE0131960190AA
:105080000D929A95E1F780932D020E946F0EAECF9C
:10509000819FC0011124825D9D4F0E94502688236C
:1050A00009F4ABCF80915E0290E00196877099275A
:1050B00080935E029CCF1F921FB61F9211248F9384
:1050C0009F93AF93BF9380912204811113C080916D
:1050D000230490912404A0912504B09126044196C4
:1050E000A11DB11D8093230490932404A093250453
:1050F000B0932604BF91AF919F918F911F901FBED7
:105100001F901895CDB7DEB7AC970FB6F894DEBFF9
:105110000FBECDBF84B7877F84BF0FB6F894A89524
:1051200080916000886180936000109260000FBEE3
:1051300080E890E00FB6F89480936100909361004E
:105140000FBE85B7806885BF85B7806885BF82E35D
:105150009CE09093E7018093E6010E941F080E9463
:10516000EA088091E20084608093E2007894809164
:1051700052048823A1F01091E9001F709091EC0077
:10518000892F817090FD80E8182B1092E9008091A2
:10519000E80083FD0E944D1A1F701093E90082E021
:1051A00084BD93E095BD9AEF97BD80936E001092F9
:1051B0001E0410921F0410922004109221040E94D9
:1051C0007314811102C00E94B5130E94FA118093DA
:1051D000460180914601882309F473C01092590159
:1051E00087E280935A010E94FA1181110E94CB310B
:1051F000809146018091460195E0811190E0909365
:10520000AC0285E0891B8093AB0208E911E03DE91F
:10521000E32E31E0F32ED8018D918D018F3F11F0F7
:105220000E94360CE016F106B1F702EA11E02AEA14
:10523000E22E21E0F22EF80181918F018F3F11F0D3
:105240000E94360CE016F106B1F7E1EAF2E08BEAD3
:1052500092E0ABEEB2E011921D928E179F07D9F744
:105260000E940A18811102C00E94801582E090E01D
:105270000E9448348093E00284E090E00E94483429
:10528000182F82E290E00E944834982F812F90934B
:105290002804809327040E94AD1E8FE39CE90197A8
:1052A000F1F700C000000E94AD1E8091EB0280FF6C
:1052B0000DC06FEF7FEF90E080E00E947A340E9493
:1052C000FA0F87E2809359018CE28BCF83E090E064
:1052D0000E9448340E94361A0E94FA11811102C0BD
:1052E0000E94CE310E94FA118111CFC21092DB02CE
:1052F00080E880935F060E9463306DE070E087E88D
:1053000092E00E94F40E892BE9F58091DB0263E0C4
:1053100070E081FDBFC284E892E00E94F40E892B08
:1053200089F56DE070E084E792E00E94F40E892B2D
:1053300049F50E94AC09605A75418F4F9F4F6093A9
:105340001204709313048093140490931504EFE5F2
:10535000F4E080E092E0DF019C011D92215030409A
:10536000E1F7F0935E04E0935D048FEF9FEF90937D
:1053700011048093100481E0809317048093160435
:105380001092DC028091AD02811138C00E940A188F
:10539000811104C00E9480150E94681588E090E089
:1053A0000E945034609305047093060480930704B0
:1053B0009093080480910A03836080930A036E7FB0
:1053C00071F40E94681588E090E00E945034609368
:1053D00005047093060480930704909308040E94C8
:1053E000710A0E946A0A8091050480FF04C060E08F
:1053F00086950E944F1981E08093AD0224982C9AE3
:1054000025982D9A83B1829581701D9946C290E0AE
:10541000892B8093B8029091460181E09827909360
:10542000B702891B8093AE0287E491E090931B043E
:1054300080931A0480915204FF24F39400E112E156
:10544000853009F476C20E94AD1EE82E81110E94BB
:10545000AC09E1EEF2E0ABEEB2E010E000E0B02E1D
:10546000DD9081918D1509F486C28D25C12CFF2414
:10547000F394982F9F2109F479C20E94FA1188238E
:1054800099F0C9A2BAA2DF2081E009F480E08BA3E1
:105490000E941F198160782F9DA38CA349A15AA156
:1054A0006BA18DA10E94C927F801EF51FD4F8081AA
:1054B000F826F08280910903882309F464C0809162
:1054C0000803E0910504E695E81BE09304038230AD
:1054D00009F068C2F0E0E356FD4FE4910E2F10E0B2
:1054E0009BE8C92E91E1D92E80910503882361F0B4
:1054F000109205030E942B199093030380930203DB
:1055000010920703109206030E942B19E0910203E8
:10551000F09103039C012E1B3F0B2F3F3F4798F553
:105520002091B3022223B1F01092B3022091B10274
:105530003091B202821B930B8F3F9F4758F4205D3E
:105540003A483093B2022093B10280910A038860F6
:1055500080930A03A0900603B0900703E00FF11FA9
:10556000F0930303E093020382E093E0F6010995D0
:105570008091060390910703892B29F4AB2819F039
:1055800081E08093B302E091B802EE0FEE0FE0935A
:10559000B80283B184FB662460F81D9933C280E0B1
:1055A0008629E82BE093B8021091B702EF70F0E083
:1055B000E655FE4F80819091B602890F8093B60226
:1055C000F12C843074F0E12FF0E0EC54FD4F808139
:1055D0008F5F8083123018F48AEA0E94361EFF24FF
:1055E000F3948091B6028D3F74F4E12FF0E0EC5417
:1055F000FD4F808181508083123018F489EA0E9427
:10560000361EFF24F3948091B602082E000C990BED
:1056100064E070E00E94BA338093B602F1100E94F9
:10562000180E80911704882351F18091DD0290912A
:10563000DE020E941019C29708F0E7C12091100401
:10564000309111042115310509F099C28091160499
:105650008823A9F00E94AC09009112041091130450
:105660002091140430911504601B710B820B930B75
:105670006F3F7F4F8F4F9F4710F40E94240FE11020
:1056800001C0F1100E943F0F86E0ECEFF2E0DE0176
:10569000119601900D928A95E1F7F090FE02E0904C
:1056A000FF0210910003009101031092FE0210927C
:1056B000FF0210920003109201038F2D8E2909F42E
:1056C00048C08091FA029091FB020E9410199C013F
:1056D0009091F602992309F4F1C423333105C8F1FE
:1056E0009F3F19F09F5F9093F602FF2059F00E94B0
:1056F000B80B9FEF1F140CF491E0899F802D1124AB
:105700008093FE02EE2059F00E94B80B9FEF1E140A
:105710000CF491E0899F802D11248093FF02309139
:10572000FE023323B1F02091FF02222391F045EBDA
:105730003403C0011124992309F4F3C29093FE02AB
:1057400045EB240390011124332309F4EEC2309376
:10575000FF02812F802B09F448C08091F8029091BC
:10576000F9020E9410199C019091F502992309F405
:10577000A0C425363105C8F19F3F19F09F5F909373
:10578000F502112359F00E94960B9FEF11160CF4AD
:1057900091E0899F802D112480930003002359F00C
:1057A0000E94960B9FEF10160CF491E0899F802DBC
:1057B000112480930103309100033323B1F0209131
:1057C0000103222391F045EB3403C00111249923F6
:1057D00009F4AFC29093000345EB24039001112418
:1057E000332309F4AAC2309301038091FE02909101
:1057F000FF02892B90910003892B90910103892B43
:1058000011F00E94B01986E0FE013196ACEFB2E0D3
:1058100001900D928A95E1F70E9439129091DF0272
:10582000891721F00E9439128093DF02809152047F
:10583000843009F0FFCD83E08093E9008091E80097
:1058400082FFF8CD8091E80090E085FF0CC00E94B7
:105850003E0830E2E32EF12C8E010F5F1F4F8823AC
:1058600009F479C291E08091E8008B778093E80099
:10587000992309F4DFCDE981E150E33108F0CEC28C
:10588000F0E0EB55F94C0C94ED3381E08093DB02B2
:1058900080E22FCD81E892E040CD92E0B9CD8091B9
:1058A0005204843009F435C00E94240F0E946A0A11
:1058B0008091B002811109C0F092B002809105047C
:1058C00081708093AF020E949F111092220488E1A0
:1058D00090E0A0E40FB6F894A895809360000FBE06
:1058E000A093600083B7817F846083BF83B78160AA
:1058F00083BF7894889583B78E7F83BF0FB6F89463
:10590000A89580916000886180936000109260008B
:105910000FBE80915104882361F00E94AD1EEBEE12
:10592000F2E081918111A4C325EF32E02E173F07E9
:10593000C1F780915204853009F4B1CF10922D0443
:105940000E943A1A0E9439121092B0028091AF025E
:10595000882349F08091050481608093050460E00C
:1059600086950E944F190E9434196DCDC394FF0C87
:1059700038E0C3127ECD0F5F1F4F0A30110509F0CA
:105980006ECD8FEF8EA38FA318A60E941F19816082
:10599000782F9AA789A74EA15FA168A58AA50E9422
:1059A000C92788CD863059F4F0E0E656FD4FE491E2
:1059B0000E2F10E08BE7C82E81E1D82E95CD8930CF
:1059C00061F4E695F0E0E956FD4FE4910E2F10E00A
:1059D000B5E0CB2EB1E1DB2E87CD00ED17E0F9E687
:1059E000CF2EFAE0DF2E8F3009F07ECDE695F0E085
:1059F000EC56FD4FE4910E2F10E0A9E6CA2EA0E16F
:105A0000DA2E72CD82E090E0CBCD0E941F199093E8
:105A1000DE028093DD0280E00E940D088091B902D1
:105A20008093BA020E94FA11882309F4A1C081E090
:105A30000E940D0860E670E087ED92E00E940E0A79
:105A400085E00E940D0860E081ED92E00E94F51271
:105A500086E00E940D0860E08CEC92E00E94F51256
:105A600080915C040E94E30E813009F475C08823A4
:105A700079F0823009F474C0833009F475C060E0B5
:105A80008EEB92E00E94F51281E00E94071305C0A0
:105A900060E08AEC92E00E94F5120E943912082F11
:105AA000017081FBDD24D0F882FB112710F960E042
:105AB0008CEB92E00E94F51281E00E94071360E0F7
:105AC00087EB92E00E94F5126D2D85EB92E00E942B
:105AD000F51260E080EB92E00E94F512602F8EEAF2
