:100000000C946E080C94B5080C94B5080C94F53358
:100010000C94B5080C94B5080C94B5080C94B5086C
:100020000C94B5080C94B5080C948D180C94691FA9
:100030000C9465290C94B5080C94B5080C94B5087B
:100040000C94B5080C94B5080C94B5080C94B5083C
:100050000C94B5080C9464190C94B5080C94B5086C
:100060000C94B5080C94B5080C94B5080C94B5081C
:100070000C94B5080C94B5080C94B5080C94B5080C
:100080000C94B5080C94B5080C94B5080C94B508FC
:100090000C94B5080C94B5080C94B5080C94B508EC
:1000A0000C94B5080C94B5080C94B5080501090228
:1000B000A10185020901A100050919012905150001
:1000C00025019505750181029501750381010501E1
:1000D000093009311581257F950275088106093897
:1000E0001581257F950175088106050C0A380215D2
:1000F00081257F950175088106C0C005010980A191
:1001000001850319012AB700150126B7009501756D
:10011000108100C0050C0901A101850419012AA064
:1001200002150126A002950175108100C005010984
:1001300006A1018505050719E029E71500250195A8
:1001400008750181020507190029EF1500250195A1
:10015000F0750181020508190129059505750191C0
:1001600002950175039101C00660FF0961A10109B3
:1001700062150026FF0095207508810209631500AD
:1001800026FF00952075089102C005010906A1010E
:10019000050719E029E71500250195087501810279
:1001A0009501750881010507190029FF150026FF33
:1001B0000095067508810005081901290595057542
:1001C000019102950175039101C00000000000003B
:1001D000000000000000000000000000000000001F
:1001E00000000000000000000000000000007E0F82
:1001F00000D4FFFFFFC700000078000000000000EF
:1002000000002A2B28000000000000000000000071
:10021000000000000029000000002C1E34202122D4
:1002200024342627252E362D3738271E1F2021223D
:10023000232425263333362E37381F0405060708B6
:10024000090A0B0C0D0E0F101112131415161718A6
:10025000191A1B1C1D2F3130232D350405060708E4
:10026000090A0B0C0D0E0F10111213141516171886
:10027000191A1B1C1D2F3130354C00DA0281FFD9B1
:10028000F1DB20A4A62EAF00A0C000A1C800AED50F
:1002900080A81FD300408D1420002D2D2D2D2D0062
:1002A00020002E0053435220002E004E554D2000BA
:1002B0002E0043415020002000556E6465660033D7
:1002C000003200310030004C595220002D2D2D2DD0
:1002D0002D00F8FEFEFFFFFFFFFFFFFFFFFFFFFF08
:1002E0003F0E0604FEFEFFFFFFFFFFFFFEFEFCF8D1
:1002F000F0C07FFFFFFFFFFFFFFFFFFFFFFFFFFFDC
:10030000F0C08080FFFFFFFFFFFFFFFFFFFFFF7FC9
:100310003F0F00010103030303030303030303036C
:1003200003010100010103030303030301010000B2
:1003300000000000000000000000000080C0C0E0DD
:10034000E0E0E0E0E0E0E0E0E0E0E0E0E0C0C0804D
:1003500080C0C0E0E0E0E0E0E0E0E0C0C08000009D
:10036000000000000000000000000000000000008D
:10037000000000000000000000000000000000007D
:10038000000000000000000000000000000000006D
:10039000000000000000000000000000000000005D
:1003A000000000000000000000000000000000004D
:1003B0000000000000000000000000FFFFFFFFFF42
:1003C000FFFFFFFFFFFFFFFFFFFFFFFF0F03010026
:1003D00001FFFFFFFFFFFFFFFFFFFFFFFFFFFFFE2C
:1003E000FCF0000000000000000000FEFEFE000027
:1003F00000000000FEFEFE000000FEFEFEFCF8E035
:10040000C080E0F8FCFEFEFE0000808080808080DE
:10041000000E0E0E0E8EEEFEFE7E1E04E0F8FC3E7A
:100420001E0E0E0E1E3EFCF8F00000000000000044
:100430000000000000000000000000FFFFFFFFFFC1
:10044000FFFFFFFFFFFFFFFFFFFFFFFFF0C0800088
:1004500080FFFFFFFFFFFFFFFFFFFFFFFFFFFF7FAB
:100460003F0F0000000000000000000F3F3F7C70C5
:100470007070707C3F3F0F0000007F7F7F0001079E
:100480000F0F0701007F7F7F0000030303030303B7
:100490000100707C7E3F0F03010000000F1F3F7CB6
:1004A00078707070787C3F1F0F0000000000000023
:1004B000000000000000000000000000010307072A
:1004C00007070707070707070707070707030301CA
:1004D00001030307070707070707070303010000D6
:1004E000000000000000000000000000000000000C
:1004F00000000000000000000000000000000000FC
:1005000000000000000000000000000000000000EB
:1005100000000000000000000000000000000000DB
:1005200000000000000000000000000000000000CB
:100530000000FD377A585A000004E6D6B44602009F
:10054000210116000000742FE5A3E005A201D05D93
:10055000003D8889C65436C3174FE4E74D00A1BE5D
:10056000681DE9BA6BB42E41F6CFB1E02A51FCB157
:10057000E9D39E099B0EFB23B4AD92D020D5BB38A6
:100580008E4F9FD1CCDA130D92524B47F358859F73
:100590002338CC550368653C9D8C217CE32B0E9B56
:1005A00084F6370ECACE9D949A36CC512CA75409A6
:1005B000A7F38FBF6C5D4B54A85646B372DE59ED5E
:1005C0004E4B77EA1C4852C0583BB3A59F87C4CE18
:1005D0007D8F533BF4A2E4FD797025B30A9BDB9435
:1005E000A859B75394BEC7DDE9C0147AE7414A540D
:1005F0001257DCE7167D83EA4477BEFAE688A80C3A
:100600000BBF807757CEE6FB9390A95AE6BAD65334
:10061000293E187655459E675A65EFA08FFD80FDEF
:100620007817068CC3114DB5B3919A304673A7194C
:1006300050C5BF1A115C0B70C7C6BF7B250EA655EF
:100640006FA2A63CF1D7EA3DC9A46799A1C9C090A1
:100650003A86C44054BEF5350D32784C3B4A23D51A
:10066000172138C15A4B91FA41ED086885D057D10E
:1006700048E0B410D04A4330FB08D8F84E46A0F901
:100680002D74AB3BE7CF3BEBDEC4F613FBDB3DE762
:1006900004B31E2D7EA98593602C3631F9464D405A
:1006A000DD3C20A3C5674BDB98E78BB2747042DC5E
:1006B000B0656771B5E8C6877457A7E44954B10AB5
:1006C00075B86470C566E19BEAC5D57EB3AB01829F
:1006D00066E68DD00EF299C9E590227CBB06CB6E02
:1006E0009BCAA347B65B04190A6DA1C03465326E7C
:1006F000F753B81F2B19407B9404627ADF08371533
:10070000959726744BE275864C19911C9F6E3CB9E7
:1007100014588413F53B632B400D8AE44B58AFC645
:100720000000F382B89157BD6ECF0001EC03A30B1C
:100730000000FE2CF8B6B1C467FB02000000000404
:10074000595A0001010101010101010102020202E5
:10075000020202020203030303030303030404046B
:100760000404040405050505050606060606070734
:1007700007070708080808090909090A0A0A0B0BEC
:100780000B0C0C0C0D0D0D0E0E0E0F0F0F1010118B
:100790001111121213131414151516161717181811
:1007A00019191A1A1B1B1C1D1D1E1E1F2020212279
:1007B00022232424252626272829292A2B2C2D2DBF
:1007C0002E2F30313232333435363738393A3B3CDC
:1007D0003D3E3F404142434445464748494A4C4DCF
:1007E0004E4F50515354555658595A5B5D5E5F6198
:1007F0006264656668696B6C6D6F7072737577782B
:100800007A7B7D7E8082838587888A8C8E8F919388
:100810009596989A9C9EA0A2A3A5A7A9ABADAFB1AF
:10082000B3B5B7BABCBEC0C2C4C6C9CBCDCFD1D494
:10083000D6D8DBDDDFE2E4E7E9EBEEF0F3F5F8FA3A
:10084000FDFFAA00A900AA00A90001000100010003
:100850000100010001000100010001000100010090
:10086000010029001E001F0020002100220023009B
:1008700000002B0014001A000800150017000000EB
:100880000000390004001600070009000A000000FB
:100890000000E1001D001B0006001900050000001B
:1008A0000000E000E300E20001512C001E001F00E8
:1008B000200024002500260027002D002E003500F2
:1008C0002A001C0018000C00120013002F0030003A
:1008D00031000B000D000E000F0033003400280023
:1008E000A80011001000360037003800E500520063
:1008F0004A002C00E600E400500051004F000000C8
:100900004D00010001000100010001000100010093
:1009100000000100010001000100010001000000D1
:1009200000000100010001000100010001000000C1
:1009300000000100010001000100010001000000B1
:1009400000000100010001000100010001000100A0
:10095000010001000100010001000100010001008F
:10096000010001000100010001000100010001007F
:10097000010001000100010001000100010001006F
:10098000010001000100010001000100010001005F
:100990000100010001000100010001000100000050
:1009A000010001000100010001000100010001003F
:1009B0000000010001000100010001000100000031
:1009C0000000010001000100010001000100000021
:1009D0000000010001000100010001000100000011
:1009E0000000010001000100010001000100010000
:1009F00001000100010001000100010001000100EF
:100A000001000100010001000100010001000100DE
:100A100001000100010001000100010001000100CE
:100A200001000100010001000100010001000100BE
:100A300001000100010001000100010001000000AF
:100A4000010001000100010001000100010001009E
:100A50000000010001000100010001000100000090
:100A60000000010001000100010001000100000080
:100A70000000010001000100010001000100000070
:100A8000000001000100010001000100010001005F
:100A9000010001000100010001000100010001004E
:100AA000010001000100010001000100010001003E
:100AB000010001000100010001000100010001002E
:100AC000010001000100010001000100010001001E
:100AD000010001000100010001000100010000000F
:100AE000010007087F0807003E5B4F5B3E003E6B3E
:100AF0004F6B3E001C3E7C3E1C00183C7E3C1800A8
:100B00001C577D571C001C5E7F5E1C0000183C18A3
:100B10000000FFE7C3E7FF00001824180000FFE70C
:100B2000DBE7FF0030483A060E0026297929260027
:100B3000407F05050700407F05253F005A3CE73C04
:100B40005A007F3E1C1C0800081C1C3E7F0014221B
:100B50007F2214005F5F005F5F0006097F017F0056
:100B6000006689956A0060606060600094A2FFA2E0
:100B7000940008047E04080010207E20100008085D
:100B80002A1C0800081C2A0808001E10101010005B
:100B90000C1E0C1E0C0030383E383000060E3E0E87
:100BA000060000000000000000005F0000000007D9
:100BB00000070000147F147F1400242A7F2A1200EB
:100BC00023130864620036495620500000080703CA
:100BD0000000001C224100000041221C00002A1CD1
:100BE0007F1C2A0008083E080800008070300000C2
:100BF00008080808080000006060000020100804D1
:100C000002003E5149453E0000427F4000007249CB
:100C1000494946002141494D33001814127F100004
:100C20002745454539003C4A4949310041211109D0
:100C30000700364949493600464949291E00000047
:100C4000140000000040340000000008142241009D
:100C5000141414141400004122140800020159094C
:100C600006003E415D594E007C1211127C007F4906
:100C7000494936003E41414122007F4141413E0009
:100C80007F49494941007F09090901003E4141511D
:100C900073007F0808087F0000417F41000020406A
:100CA000413F01007F08142241007F404040400046
:100CB0007F021C027F007F0408107F003E414141FB
:100CC0003E007F09090906003E4151215E007F096F
:100CD0001929460026494949320003017F010300D2
:100CE0003F4040403F001F2040201F003F40384011
:100CF0003F0063140814630003047804030061597F
:100D0000494D4300007F414141000204081020008A
:100D1000004141417F000402010204004040404084
:100D200040000003070800002054547840007F284A
:100D300044443800384444442800384444287F0060
:100D400038545454180000087E09020018A4A49CCA
:100D500078007F080404780000447D4000002040B3
:100D6000403D00007F102844000000417F4000000B
:100D70007C04780478007C080404780038444444F7
:100D80003800FC182424180018242418FC007C08BF
:100D90000404080048545454240004043F4424002C
:100DA0003C4040207C001C2040201C003C40304047
:100DB0003C004428102844004C9090907C004464EF
:100DC000544C440000083641000000007700000049
:100DD0000041360800000201020402003C262326DE
:100DE0003C00000000000000404040F0F8F8FF38F0
:100DF000FFF8F83FF8F8FF38FFF8F8F040404000FF
:100E0000000000000080C0C0C0800000C0C08000A2
:100E1000000080C0C000C0C0000080C0C000000052
:100E20000000C0C0C0C0C000C0C000000000000082
:100E300000000000000000000000000000000000B2
:100E400000000000000000000000000000000000A2
:100E50000000000000000000000000000000000092
:100E600000C0F0F8FC3E1E06010000007F41414139
:100E70007F007F4141417F000080C0E07E5B4F5B8F
:100E8000FEC00000C000DCD7DEDEDED7DC00C00024
:100E90000000000000000000000000000000000052
:100EA0000000000000000000494949FFFFFFFFE08B
:100EB000DFBFBF00BFBFDFE0FFFFFFFF49494900C1
:100EC000000000001F3F6060E0BF1F007F7F071E23
:100ED000381E077F7F007F7F0E1F3B716000000080
:100EE00000007F7F0C0C0C007E7E007F7E030300E1
:100EF0007F7E03037E7E03037F7E000F3E703C06F1
:100F00003C703E0F00327B49493F7E007F7E0303E9
:100F1000001E3F69696F260000000000000000000D
:100F200000030F1F3F3C7870600000007F4141418B
:100F30007F007F4141417F00307B7F78302020302F
:100F4000787F3B0003000F7F0F0F0F7F0F00030020
:100F50000000000000000000000000000000000091
:100F60000000000000000000010101070F0F7F0FCB
:100F70007F0F0F7E0F0F7F0F7F0F0F070101010003
:100F8000000000000000000000010100000000005F
:100F90000000000000000000000000000000000051
:100FA0000000000000000000000000000000000041
:100FB0000000000000000000000000000000000031
:100FC0000000000000000000000000000000000021
:100FD0000000000000000000000000000000000011
:100FE0000000000000000000000000000000000001
:100FF00000000000000000000000000000000000F1
:1010000000000000000000000000000000000000E0
:1010100000000000000000000000000000000000D0
:10102000000000AF00AE09025B00030100A0FA0956
:101030000400000103010100092111010001224007
:10104000000705810308000A0904010002030000EB
:10105000000921110100012222000705820320005E
:101060000107050303200001090402000103000039
:101070000009211101000122BC00070584032000A2
:101080000A1201000200000008654D223201000131
:101090000203011C037600690061006C003A0066DF
:1010A0000036003400630032006200330063000049
:1010B00000160355004D002D00370030002000566B
:1010C00000690061006C0000000C034D00650072B7
:1010D00000670065000000040309040011241FBE1E
:1010E000CFEFDAE0DEBFCDBF04B603FE27C08091AC
:1010F0004F0690915006A0915106B091520687304C
:10110000904BA740B04BD1F410924F06109250066E
:10111000109251061092520614BE84B7877F84BF86
:101120000FB6F894A8958091600088618093600064
:10113000109260000FBEE0E0F8E3099511E0A0E036
:10114000B1E0E4EAFCE602C005900D92A43DB107CF
:10115000D9F726E0A4EDB1E001C01D92AF34B2078B
:10116000E1F70E948C290C941E360C94000090919B
:101170004E06899FC0011124811522E0920714F0C8
:1011800090E080E0825B9B4F90934D0480934C04F1
:101190000895E8EDF0E080818E7F80831092E20078
:1011A0001092DA001092E100A0EEB0E08C91816024
:1011B0008C9380818F77808319BCA7EDB0E08C91F0
:1011C0008E7F8C9380818F7E808310921B04089584
:1011D0002091E4003091E50095E6A9012091EC0012
:1011E000822F817020FF06C08091E80080FF06C03A
:1011F00080E008952091E80022FD1AC080914A0401
:10120000882389F0853089F08091EB0085FD0FC03F
:101210002091E4003091E50042175307F9F2915014
:10122000E1F684E0089582E0089583E0089581E086
:101230000895EF92FF920F931F93CF937C018B0140
:101240000E94E808C82F811117C08091E80085FD31
:101250000BC08091E8008E778093E8000E94E80838
:10126000882399F3C82F08C0F70181917F018093EB
:10127000F1000150110949F78C2FCF911F910F9167
:10128000FF90EF900895CF93FC0180914A04843041
:1012900001F5C091E900CF702091EC00922F917080
:1012A00020FD90E8C92B82E08093E9008091E8005E
:1012B00080FF0CC050E040E060E270E0CF010E948F
:1012C00019098091E8008E778093E800CF70C09371
:1012D000E900CF9108958091420487FF13C0809167
:1012E000E80082FF06C08091E8008B778093E800D9
:1012F00004C080914A048111F2CF089580914A047C
:101300008823D9F38091E80080FFF8CF8091E8002E
:101310008E77ECCF982F9093E900242F762F50E012
:10132000891731F07091EC002091ED005091F000A0
:1013300021FD07C09F5F973071F78093E90081E03E
:1013400008953091EB003E7F3093EB003091ED003B
:101350003D7F3093ED003091EB0031603093EB0036
:101360007093EC002093ED005093F0002091EE007C
:1013700027FDE0CF80E00895CF92DF92EF92FF92B9
:101380000F931F93CF93DF93C8EDD0E088818F7EBA
:101390008883E7EDF0E080818160808384E082BF14
:1013A00081E080931B0488818E7F888302EE10E0A9
:1013B000F80110821092DA0081EEC82ED12CF601CD
:1013C000108288818F77888388818068888388816C
:1013D0008F7D888319BC10924A04109241041092A8
:1013E000400410923F0490EEE92EF12CF701808129
:1013F0008B7F808388818160888342E060E080E029
:101400000E948A09F60180818E7F8083F8018081A5
:1014100081608083808188608083F70180818E7FF6
:101420008083888180618883DF91CF911F910F91A4
:10143000FF90EF90DF90CF900895FC0180914804D9
:101440009091490486179707A0F06115710529F45A
:101450009091E8009E779093E80090E06115710507
:1014600051F4911108C08091E80082FF34C080E0FF
:101470000895BC01F2CF80914A048823C1F18530E0
:10148000C1F18091E80083FD30C08091E80082FDC9
:10149000EACF8091E80080FFE1CF8091F3002091B6
:1014A000F200382F6115710519F02830310558F018
:1014B00091E02830310509F090E02091E8002E7786
:1014C0002093E800CBCF81918093F10061507109A6
:1014D0002F5F3F4FE7CF80914A04882341F085304A
:1014E00041F08091E80083FFBECF81E0089582E063
:1014F000089583E0089580911E0408952FB7F8940D
:101500006091120470911304809114049091150459
:101510002FBF089520915D012223C9F02091160468
:1015200027FF15C0E62FE695E695E695EE31D8F44F
:10153000E80FF92FF11D677021E030E001C0220FA4
:101540006A95EAF720958281282322830895FC0179
:10155000329608962191621303C0DF0111971C9205
:10156000E817F907B9F7089520910F043091100496
:101570002817390771F09093100480930F04E091BD
:101580000D04F0910E04309721F00084F185E02DD8
:101590000994089520910B0430910C042817390701
:1015A00071F090930C0480930B04E0910D04F09182
:1015B0000E04309721F00680F781E02D09940895FC
:1015C000CF93DF9320914C0430914D042E5434403E
:1015D000A901460F571F4130524020F060E072E0F1
:1015E000621B730B4091030450910404FC01C90178
:1015F000620F731FC1E0D0E08617970738F0509351
:10160000040440930304DF91CF9108952491DC01F9
:10161000A25BBB4F3C91321781F02C939C01A5E05B
:1016200036952795AA95E1F7DE0102C0AA0FBB1FE8
:101630002A95E2F79D014A2B532B01963196DCCF78
:10164000FC01680F791F8FEF91E32191822728E039
:1016500030E087FF09C0880F892721503109C9F779
:10166000E617F70791F70895880FF7CFFA01811170
:1016700001C0FB0109948091F103982F9E7F71F4C2
:101680008091F103817082608093F1038091F40373
:10169000873918F086E98093F4030895843080F741
:1016A000F5CF9091F102803F59F48091F20287FFCB
:1016B0000DC01092F20291110BC01092E90208C005
:1016C000813F81F48091F20218169CF3992381F0F6
:1016D0008091F3029091F402892B09F064C010927A
:1016E000E8020895823F49F497FFF0CF1092F1028B
:1016F0008091F2028111ECCFE0CF833F19F41916EB
:10170000ACF3E4CF2091F302893F29F41216F4F6EA
:101710001092F302DBCF8A3F19F427FFD7CFF8CF1F
:101720002091F4028B3F29F427FFD0CF1092F402CE
:10173000CDCF8C3F19F41216CCF3C8CF843F31F4CF
:101740008091F0028E7F8093F002C0CF853F21F41C
:101750008091F0028D7FF7CF863F21F48091F002D7
:101760008B7FF1CF873F21F48091F002877FEBCF11
:10177000883F21F48091F0028F7EE5CF8D3F31F4D8
:101780008091EA028E7F8093EA02A0CF8E3F21F4FF
:101790008091EA028D7FF7CF8F3F09F097CF80913C
:1017A000EA028B7FF0CF08958091EA0280FD16C097
:1017B00081FD16C082FD16C08091E8028823A1F049
:1017C000883280F428E0829FC001112468E270E032
:1017D0000E948F35862F672B39F0089582E0089597
:1017E00084E0089588E0089581E008958091EA02F8
:1017F00080FD14C081FD14C082FD16C08091E902F5
:10180000882381F0843180F422E3829FC001112477
:1018100064E170E00E948F35862F08958CE0089572
:1018200089E1089585E0089582E30895803F31F4C9
:101830000E94F60B81958093F2020895813F19F47E
:101840000E94F60BF8CF823F31F40E94F60B81958F
:101850008093F1020895833F19F40E94F60BF8CFAC
:10186000893F29F40E94D40B8093F30208958A3FA4
:1018700021F40E94D40B8195F7CF8B3F31F40E9465
:10188000D40B81958093F40208958C3F19F40E9443
:10189000D40BF8CF843F31F48091F00281608093C3
:1018A000F0020895853F21F48091F0028260F7CF25
:1018B000863F21F48091F0028460F1CF873F21F4CC
:1018C0008091F0028860EBCF883F21F48091F00294
:1018D0008061E5CF8D3F31F48091EA028160809391
:1018E000EA0208958E3F21F48091EA028260F7CFE8
:1018F0008F3FB9F78091EA028460F1CF80E00895CC
:1019000078940895F894E82FE295EF70F0E031A113
:10191000282F2F7081E090E001C0880F2A95EAF708
:10192000982F9095932391A392A1892B82A30C9435
:10193000800C9091160492FF06C0282F2871283041
:10194000F9F4877F846093FF06C0282F287128311F
:10195000F1F4877E84612091170420FF06C0382FA0
:1019600038713830D9F4877F816021FF06C0282F75
:1019700028712831D1F4877E816194FD877E089596
:10198000282F24712430F9F68B7F8860DCCF282F34
:101990002471243101F78B7E8861DDCF382F3171BE
:1019A000313019F78E7F8860E0CF282F21712131E7
:1019B00021F78E7E8861E1CFCF93DF93EC018238EF
:1019C0009105A9F1D8F58133910509F496C048F540
:1019D0008932910509F48AC08A9709F495C0C11526
:1019E00021E5D20708F0BCC0C11530E5D30708F0E7
:1019F00014C1C83ED10508F09CC0C03ED10560F5B9
:101A0000C83AD10508F087C0C53AD10508F0FDC035
:101A1000C130D10509F12097F9F0C430D105E0F4C7
:101A200040C08533910509F45AC0C997C1F6809129
:101A30001604837089F0C0EED0E00EC0833E91059D
:101A400099F170F4803E910501F1823E910539F6DD
:101A50008091160482FD21C0CE01DF91CF910895BF
:101A6000863E910561F1873E910571F1843E9105B5
:101A700009F0B5CF8091170481FFEECF8091160455
:101A8000C7EED0E084FD0DC0E7CF8091160480FD45
:101A900012C19091170490FFDFCFC3EED0E084FF16
:101AA000DBCFD0E0C0E0D8CF8091160482FD06C124
:101AB0009091170490FDBFCF84FFCECFF2CF8091DD
:101AC000160483FDDDCFC8CF8091160483FDF9C0D5
:101AD0009091170491FFF0CFC4EED0E0BDCF80917C
:101AE000160485FFB9CFC9E2D0E0B6CF80911604C5
:101AF00085FFB2CFC5E3D0E0AFCF8091160486FF5B
:101B0000ABCFCAE2D0E0A8CF8091160486FFA4CF65
:101B1000C1E3D0E0A1CFCF3BD10518F6C85AD0E041
:101B2000CC0FDD1FC759DE4F0990D881C02DD4647A
:101B300093CFC11540E2D40758F4C11581E0D8070E
:101B400008F08ACFC03FD10508F4ABCFD06584CF71
:101B5000C11590E4D90708F4A4CFDF70D06A7CCF18
:101B6000C11525E5D20700F5C11534E5D30708F006
:101B70008AC0C11543E5D40708F071C0C11582E5DC
:101B8000D80708F467C0CE018370992721E030E0C0
:101B900002C0220F331F8A95E2F7C695C69580E2F0
:101BA000C89FE001112452C0C11599E5D907A8F4D6
:101BB000C11528E5D20708F06BC0C11536E5D3077B
:101BC00008F06FCF8C2F0E94990CC82FD0E0DC2F2B
:101BD000CC27CC27DF71D0623FCFC1154AE5D407AF
:101BE00008F45BC0CE0190568115904208F059CFA1
:101BF0008D2F8F710E94990C90E0982F882788274D
:101C00009F719C012C2BE901E6CFC55AD0E0CA593F
:101C1000DE4FC881D0E0D0641FCFCE01E4E09695BE
:101C20008795EA95E1F783702C2F269526952370EA
:101C300040E2249F90011124382B8C2F8370C1E047
:101C4000D0E002C0CC0FDD1F8A95E2F7C22BD32B68
:101C5000DC6802CFDC2FCC27C16FD06AFDCECE016D
:101C60008370992721E030E002C0220F331F8A954C
:101C7000E2F7C695C69590E2C99FE0011124C22BF8
:101C8000D32BDA68E9CEDC2FCC27C46FD06AE4CE40
:101C9000DC2FCC27C06FD06ADFCE8C2F8F700E94D4
:101CA000990C34E0D695C7953A95E1F7CF709C2F03
:101CB000EC01D069D1CEC9E3D0E0CECEC2EED0E007
:101CC000CBCEC6EED0E0C8CE0C947E0A80918702BF
:101CD000882331F010928702109253021092520220
:101CE0000895809590911C04982390931C04089566
:101CF0001092500210924F0210924E02089580915D
:101D00004D02811110924D02089580914C029091E4
:101D10001B02981301C008958F5F8770FACF9E3F12
:101D200049F1990F990F990FE92FE80F9E2F97709E
:101D3000E695E695E69583E0E89FF0011124E950E9
:101D4000FE4F50E040E080E0219130E0092E02C0DB
:101D5000369527950A94E2F721703327042E01C0A7
:101D6000220F0A94EAF7822B4F5F5F4F43305105F1
:101D700059F7089580E008959E3F69F1990F990FF2
:101D8000990FE92FE80F8E2F877041E001C0440FB3
:101D90008A95EAF7E695E695E69583E0E89FF001F7
:101DA0001124E950FE4F30E020E070E05191DF0156
:101DB0001197CB01022E02C0969587950A94E2F7FF
:101DC000817081958527842385278C932F5F3F4FD2
:101DD0002330310559F70895982F92959F7011F08F
:101DE000892F94E0282F2695269511F09E5F822F4B
:101DF000869509F09F5F892F08959C013A952115DA
:101E00003F4150F5FC01EE27F170BC01662772706E
:101E1000AC01442754709C012227387094FF0EC0F7
:101E200080E1EF2B09F480E0672B09F08062452BFD
:101E300009F08064232B89F08068089581E0EF2BFE
:101E400009F480E0672B09F08260452B09F084607B
:101E5000232B19F08860089580E00895CF92DF92D7
:101E6000EF92FF920F931F93CF93DF936C017B014F
:101E700064E670E088E70E944C32EC0197FD12C0E6
:101E800010E000E0F601E00FF11F849164E670E0DD
:101E90000E94C632EC01892B29F40F5F1F4F0E15EB
:101EA0001F0581F70E944933CE01DF91CF911F9129
:101EB0000F91FF90EF90DF90CF90089580910904EB
:101EC00090910A04911103C091E089270895882315
:101ED00069F062E070E084E290E10E942E0F892BAD
:101EE00019F0809109040895109209048091090461
:101EF000EBCFCF93C091090480910A048823D1F0DD
:101F00000E947E0A605A75418F4F9F4F609305046F
:101F1000709306048093070490930804C11108C0CD
:101F200062E070E082E290E10E942E0F892B29F09E
:101F3000C09109048C2FCF91089581E0809309040A
:101F4000F7CF90914A04943029F580931804709348
:101F50001A04609319049093E9008FEF9091E800C0
:101F6000815095FD06C095ED9A95F1F7000081111D
:101F7000F5CF8091E80085FF0DC050E040E063E0C0
:101F800070E088E194E00E9419098091E8008E7762
:101F90008093E8000895BC0184E00C94A10FBC017B
:101FA00083E00C94A10F9C0184E08093E9009FEFF3
:101FB0008091E800915085FD06C085ED8A95F1F786
:101FC00000009111F5CF8091E80085FF0CC050E032
:101FD00040E066E070E0C9010E9419098091E800C4
:101FE0008E778093E8000895CF93DF93EC01809182
:101FF0005D018823B1F18091160487FF32C060E251
:1020000084E08093E9008FEF9091E800815095FD86
:1020100006C095ED9A95F1F700008111F5CF8091FA
:10202000E80085FF1BC080915D0170E050E040E05A
:10203000811104C050E040E068E070E0CE010E94F1
:1020400019098091E8008E778093E80080E2FE0114
:10205000AFE1B4E001900D928A95E1F7DF91CF9165
:10206000089568E081E0CDCF81E08093E00080E2D8
:102070008093D8001092C9008FE19EE40197F1F798
:1020800000C0000087E090EBDC0180934F06909346
:102090005006A0935106B093520688E19CE00FB61B
:1020A000F894A895809360000FBE90936000FFCFD6
:1020B000609159018091F10380FF20C08091580107
:1020C00043E0849FC001112488509D4F539A2BB147
:1020D000277F3BB138605FB7F894FC01649FE00D47
:1020E000F11D1124BF0168177907D1F45FBF8FE597
:1020F00094E00197F1F700C00000089580915A0123
:1021000090915B0123E0829FF0011124E850FD4F84
:102110008917A0F61182108212828F5F3396F8CF52
:10212000FC014191CF01E8E03BB9000000C047FF4E
:102130002BB9440F000000C000C000C02BB900C084
:10214000EA9591F7D0CFE1EFF3E080818E7F808335
:10215000E5EFF2E08281816082832FEF80E792E0F9
:10216000215080409040E1F700C000000C945810CE
:102170009F92AF92BF92CF92DF92EF92FF920F9316
:102180001F93CF93DF937C015B016A0180919002E2
:1021900001E010E08A3010F40AE010E0C1E0D0E085
:1021A000F894B501C701F6010995982E0E94800C9C
:1021B000911004C021960C171D076CF4892DDF9136
:1021C000CF911F910F91FF90EF90DF90CF90BF9034
:1021D000AF909F900895CC9F9001CD9F300D300D12
:1021E000112490E080E045E34A95F1F70000019664
:1021F00082179307C1F7D4CF80915D02811118C077
:1022000088EC9091E30097FD10C0EFE3FCE9319773
:10221000F1F700C000008150A1F782E080935D02D9
:102220000E94C90810924A0403C081E080935D02B5
:1022300081E090915D02913011F080E00895089561
:102240000E94FC10882351F0E0910D04F0910E04DF
:10225000309721F00190F081E02D099480E00895FD
:102260001F93CF93DF93162F8A3031F481E0DF91F3
:10227000CF911F910C94D5118D3011F480E0F7CFE0
:10228000C0914C04D0914D0496E0FE01ADEFB3E057
:1022900001900D929A95E1F7803EA8F186E0FE014B
:1022A00011928A95E9F7C0914C04D0914D04111117
:1022B00036C046E050E0BE018DEF93E00E94B93594
:1022C0009E012E543440892BA9F52A5F3F4F40913F
:1022D0004E06642F70E0C9010E946F35481B4630DE
:1022E00010F4240F311D211572E0370710F030E093
:1022F00020E0225B3B4F30934D0420934C04DF9150
:10230000CF911F910895F6E08F9FB00111246E5177
:10231000754F46E050E0CE010E94B035C4CF9E011B
:102320002A5F3F4FFE012E173F0719F280818095EB
:102330008193F9CFC90145E0969587954A95E1F7D4
:1023400041E050E0BA0102C0660F771F8A95E2F7BC
:10235000CB016091030470910404862B972BB90183
:102360006B5F7F4FE5E076956795EA95E1F702C0F0
:10237000440F551F6A95E2F7842B952B9093040424
:1023800080930304A2CF1F93CF93DF93EC01162F0A
:10239000FE018491811104C0DF91CF911F910895B6
:1023A000612F0E9430112196F3CFCF93382FE09107
:1023B0004C04F0914D04EE54F44020914E06622FEF
:1023C00070E0CF010E946F35281B822F332369F004
:1023D00066E00E948335C82FC15010F4CF91089554
:1023E00060E080E20E943011F7CF9F01280F311D7D
:1023F0002115324018F080E0F0E0E0E08E0F9F2FD2
:10240000911D825B9B4F90934D0480934C04E6CFCB
:10241000CF93DF93C7ECD2E060E0CE010E94EA35B3
:102420002196C11584E0D807B9F7DF91CF910895BF
:102430000F931F93CF93DF938901843068F5623047
:1024400058F5423048F501152CE5120731F420917A
:10245000F7033091F803232BF9F028E0829FC001A5
:10246000112424E0629FB0011124860F971FC42F0E
:10247000D0E0CC0FDD1FC80FD91FC955DD4F612F2C
:10248000CE010E94EA35602FCE010196DF91CF91F7
:102490001F910F910C94EA35DF91CF911F910F910D
:1024A00008950F931F93CF93DF938901843048F5EC
:1024B0006A3038F5483028F521153C4531F4209133
:1024C000F7033091F803232BE1F090E1699FE001DD
:1024D000112450E0440F551FC40FD51F90EA899F67
:1024E000C00DD11D1124612FCE0187960E94EA35BF
:1024F000602FCE018896DF91CF911F910F910C94A0
:10250000EA35DF91CF911F910F9108956F927F92DD
:102510008F929F92AF92BF92CF92DF92EF92FF92F3
:102520000F931F93CF93DF93A090F703B090F8031E
:1025300081E090E09093F8038093F70382E4C82E43
:1025400088E0D82E92E6E92E98E0F92EC0E0470107
:1025500010E014C0F301259134914D2F612F8C2F81
:102560000E94511282E0680E711CDF5FD83091F733
:1025700080E1880E911C1F5F1A3019F03401D0E001
:10258000E9CF8601D0E0F8012591349140E06D2F2C
:102590008C2F0E941812F80132962591349141E057
:1025A0006D2F8C2F0E9418120C5F1F4FD130E9F451
:1025B00088E0C80ED11CCF5F80EAE80EF11CC43061
:1025C00009F0C5CFB092F803A092F703DF91CF9145
:1025D0001F910F91FF90EF90DF90CF90BF90AF9041
:1025E0009F908F907F906F900895D1E0CCCFCF9344
:1025F000C82F6FEF81116FE183E290E00E94EA350E
:102600006FEFC11160EE84E290E00E94EA356FEF57
:10261000C11169EB85E290E0CF910C94EA3580E03E
:102620000E94F71260E086E290E00E94EA350E9484
:1026300086120E94081281E00C94F712CF93C09189
:102640001704C2FB992790F9981781F080FBC2F913
:10265000C09317046091160484E090E00E94EA356C
:102660006C2F82E290E0CF910C94EA35CF910895DF
:102670000F931F93CF93DF93843038F5623028F5A2
:1026800028E0829FC001112434E0639FB00111242F
:10269000860F971FC42FD0E0CC0FDD1FC80FD91FA6
:1026A000C955DD4FCE010E94D635082F10E0102FFE
:1026B0000027CE0101960E94D6359801282BC9012A
:1026C000DF91CF911F910F91089590E080E0F8CFB6
:1026D0000F931F93CF93DF93843030F56A3020F54A
:1026E000483010F520E1629F8001112450E0440F32
:1026F000551F040F151F30EA839F000D111D112473
:10270000C80187960E94D635C82FD0E0DC2FCC2791
:10271000C80188960E94D6359E01282BC901DF91F9
:10272000CF911F910F91089590E080E0F8CF462F50
:102730002091FB033091FC03232B91F47E3F39F46D
:102740006E3F71F48091F9039091FA0308958430FB
:1027500038F47A3028F4683018F4672F0C94681332
:1027600090E080E00895CF92DF92FF920F931F9345
:10277000CF93DF936C0100914B048091F603082BFB
:10278000C7E0D0E010E0FC2EC8010C2E02C09595E9
:1027900087950A94E2F780FD0CC02197A0F7F12CF1
:1027A0008F2DDF91CF911F910F91FF90DF90CF90F0
:1027B0000895B6018C2F0E9497130E94DC0C01979C
:1027C00061F3EECFCF93DF93EC010E94B313BE0110
:1027D0000E949713DF91CF910C94DC0CFC01808157
:1027E00091810E94E213292F2F7092959F70925031
:1027F0009E3078F4E92FF0E0E05EF94C0C94A335BC
:10280000803F19F020F4883E20F481E00895843F51
:10281000E1F380E00895883EC0F3813FD1F7F5CF22
:10282000822F869586958695089583E290E00E9492
:10283000D6358F3189F484E290E00E94D635803E0F
:1028400059F485E290E00E94D63591E0893B09F089
:1028500090E0892F8170089580E0FCCFCF92DF92C5
:10286000EF92FF926B017C010E943B0BB701A60126
:1028700088E090E0FF90EF90DF90CF900C94FC35D3
:102880008F929F92AF92BF92CF92DF92EF92FF9280
:102890000F931F93CF93DF93182FC62FD42F822E21
:1028A0000091F10300FFD8C0E02FE695F0E0ED5372
:1028B000FE4F80818093F502802F8E7F8230E9F475
:1028C000E42F473908F0E6E9F0E0EE5BF84FC1117C
:1028D00044C02491F22FE22F00FF0FC080915A01D3
:1028E00090915B0133E0839FD0011124A850BD4F2C
:1028F000891708F4A7C00E9458108091F203811331
:1029000008C08091F3038C1304C08091F4038D17E9
:1029100029F08091F70282608093F7021093F2030E
:10292000C093F303D093F403882009F495C0609119
:10293000F1037091F2038091F3039091F403DF911E
:10294000CF911F910F91FF90EF90DF90CF90BF90AC
:10295000AF909F908F900C942E14EC2EF12CE4915C
:102960009E2ECE2ED12C26E0129FC00111242FEFD7
:1029700030E0B9010E946F35812F90E0880F991FD8
:10298000F5E5F69FA001F79F500D1124841B950BD0
:10299000B82EBB0CB80EA9014E195F094C9DC001A1
:1029A0004D9D900D5C9D900D1124F92FCB9DA001A4
:1029B0001124452F5527D901A41BB50BAC9DA001AF
:1029C000AD9D500DBC9D500D1124D901AB19B1091D
:1029D0005D01AE9CD001AF9CB00DBE9CB00D11242A
:1029E000AB2FBB272A1B3B0B2C9DD0012D9DB00D7F
:1029F0003C9DB00D11242B2F62307105A1F050F4D5
:102A00006115710509F468CF6130710581F0292FD6
:102A1000F52F62CF6430710569F080F06630710582
:102A200009F45ACFF4CF2E2FE92FFB2F55CF2E2F9D
:102A3000E52F52CF292FFE2FEB2F4ECFE92FF92D67
:102A4000252F4ACF1196EC9311972C931296FC9355
:102A500012978F5F13964CCFDF91CF911F910F91FB
:102A6000FF90EF90DF90CF90BF90AF909F908F90AE
:102A70000895E1EFF3E0438121E1421B08F440E0D7
:102A800021E0628181810C944014E1EFF3E0438105
:102A900021E1420F08F44FEF21E0628181810C9423
:102AA0004014E1EFF3E0628121E1621B08F460E091
:102AB00021E0438181810C944014E1EFF3E06281D5
:102AC00021E1620F08F46FEF21E0438181810C94D2
:102AD0004014E1EFF3E0818121E04381628188507D
:102AE0000C944014E1EFF3E0818121E043816281A5
:102AF000885F0C9440148091F503882319F081506D
:102B00008093F5036091F1037091F2038091F303D8
:102B10009091F4030C942E148091F503833018F4F3
:102B20008F5F8093F5036091F1037091F2038091C0
:102B3000F3039091F4030C942E148091F10380FF21
:102B40001EC0817082608093F1038091F7028160E2
:102B50008093F702662351F06091F1037091F203C4
:102B60008091F3039091F4030E942E1420E0409191
:102B7000F4036091F3038091F2030C9440140895E0
:102B80008091F1038695815009F481E061E00C9415
:102B90009D1561E081E00C949D15E1EFF3E083E089
:102BA000808311828FEF828386E983831482A5EF6D
:102BB000B2E012968C911297836012968C9360818A
:102BC0007181828193810C942E146AEE7EEF90E0E5
:102BD00080E00E94083660E082E090E00E94EA35E2
:102BE00060E083E090E00E94EA351092F60360E036
:102BF00084E090E00E94EA3560E082E290E00E948A
:102C0000EA3560E085E090E00E94EA3560E086E029
:102C100090E00E94EA356FEF87E090E00E94EA358D
:102C200040E050E0BA0188E090E00E94FC3560E0AE
:102C30008DE090E00E94EA3540E050E0BA0188E182
:102C400090E00E94FC3560E087E190E00E94EA3568
:102C500040E050E0BA018CE190E00E94FC3570E069
:102C600060E080E290E00E94083640E050E0BA0167
:102C700088E190E00E94FC3580E00E94F7120E94FB
:102C80000F1340E050E0BA018FE090E00E94FC3565
:102C900040E050E0BA0183E190E00C94FC35EF9203
:102CA000FF920F931F93CF93DF937901C82F880F63
:102CB000DD0B41155105A9F08AE08C9FF0018D9F35
:102CC000F00D1124E050FF4F83819481825A9D4F73
:102CD000228130E04217530708F49A01A9010E94AB
:102CE000C635CE010E94BB34892B11F501151105A3
:102CF000E9F08AE08C9FF0018D9FF00D1124E050E7
:102D0000FF4F458150E00417150708F4A8018AE039
:102D10008C9FF0018D9FF00D1124E050FF4F6681D4
:102D20007781625A7D4FC7010E94C63581E001C09C
:102D300080E0DF91CF911F910F91FF90EF90089568
:102D40000F931F93CF93DF93CDB7DEB728970FB6BE
:102D5000F894DEBF0FBECDBF85E0E1EFF3E0DE010A
:102D6000119601900D928A95E1F78091F50290916C
:102D7000F602A091F7028E839F83A8872885409151
:102D80008C0250918D0260918E0270918F023FB73C
:102D9000F8948091120490911304A0911404B091BE
:102DA00015043FBF841B950BA60BB70B843691050A
:102DB000A105B10510F42223C1F010E000E030E0DD
:102DC00020E048E050E0BE016F5F7F4F86E00E9448
:102DD0004F16882369F00E947E0A60938C027093DC
:102DE0008D0280938E0290938F021092F70281E001
:102DF00028960FB6F894DEBF0FBECDBFDF91CF91FE
:102E00001F910F9108950F931F93CF93DF9300D0DD
:102E10000F92CDB7DEB78091880290918902A09180
:102E20008A02B0918B022FB7F8944091120450910E
:102E3000130460911404709115042FBF481B590BA3
:102E40006A0B7B0B81E0443651056105710508F47E
:102E500080E090911C049983443651056105710509
:102E600020F420916A02291381E0909186029A83CE
:102E7000811106C081E020916B02291301C080E01E
:102E8000909187029B83811105C080916C0211E0B3
:102E90008917C9F010E000E030E020E043E050E0A6
:102EA000BE016F5F7F4F85E00E944F16182F882369
:102EB00051F00E947E0A6093880270938902809389
:102EC0008A0290938B02812F0F900F900F90DF91C9
:102ED000CF911F910F9108950F931F93CF93DF937D
:102EE00000D000D0CDB7DEB740918202509183026E
:102EF00060918402709185022FB7F894809112043A
:102F000090911304A0911404B09115042FBF841B59
:102F1000950BA60BB70B11E084369105A105B10501
:102F200038F10E94FC10882369F10E947E0A6E5FCE
:102F30007F4F8F4F9F4F69837A838B839C8310E0F1
:102F400000E030E020E044E050E0BE016F5F7F4FE2
:102F500084E00E944F16182F882351F00E947E0AA9
:102F6000609382027093830280938402909385021F
:102F7000812F0F900F900F900F90DF91CF911F91A5
:102F80000F9108950E947E0A009191021091920281
:102F90002091930230919402600F711F821F931F42
:102FA000C6CF7F928F929F92AF92BF92CF92DF92C5
:102FB000EF92FF920F931F93CF93DF930F92CDB7B2
:102FC000DEB7762E4A015901680101E010E09E014A
:102FD0002F5F3F4F50E040E070E060E00E944F16EE
:102FE000182F882309F44BC0F4014081518162817C
:102FF00073812FB7F8948091120490911304A091DB
:103000001404B09115042FBF841B950BA60BB70BAE
:1030100084369105A105B10538F4B701C6010E94B7
:10302000200B9981891759F18701950150E040E003
:1030300070E060E0872D0E944F16B82EB701C601E0
:103040000E94200B11E09981981310E01B2139F0A8
:103050000E947E0AF4016083718382839383812FAF
:103060000F90DF91CF911F910F91FF90EF90DF9024
:10307000CF90BF90AF909F908F907F900895A701C1
:10308000B601C5010E94C635EACFCF92DF92EF921A
:10309000FF920F931F93CF93DF9300D000D00F9236
:1030A000CDB7DEB76B0185E0E82EF12C0FE512E01D
:1030B0009E012F5F3F4F4AE752E061E080E00E94AF
:1030C000D117882349F095E0FE013196A5E7B2E0DB
:1030D00001900D929A95E1F795E0E5E7F2E0D601CF
:1030E00001900D929A95E1F70F900F900F900F902D
:1030F0000F90DF91CF911F910F91FF90EF90DF9094
:10310000CF90089590E080E00E94E4358A3E9E4F83
:1031100011F40C94151480E008951F920F920FB6CD
:103120000F9211242F933F934F935F936F937F934D
:103130008F939F93AF93BF93EF93FF938091E100A1
:1031400082FF09C08091E20082FF05C08091E1000A
:103150008B7F8093E1008091DA0080FF24C0809112
:10316000D80080FF20C08091DA008E7F8093DA0043
:103170008091D90080FF9BC080E189BD82E189BD3B
:1031800009B400FEFDCF81E080934A0480911B04C6
:10319000811109C00E94C9080E94BC098091E20007
:1031A00084608093E2008091E10080FF17C08091ED
:1031B000E20080FF13C08091E2008E7F8093E200E6
:1031C0008091E20080618093E2008091D80080626B
:1031D0008093D80019BC85E080934A048091E10077
:1031E00084FF29C08091E20084FF25C080E189BD71
:1031F00082E189BD89B5982F917080FFFBCF8091C6
:10320000D8008F7D8093D8008091E1008F7E8093DD
:10321000E1008091E2008F7E8093E2008091E200E5
:1032200081608093E20080914104882309F445C0C5
:1032300084E080934A048091E10083FF27C080915D
:10324000E20083FF23C08091E100877F8093E1004B
:1032500082E080934A04109241048091E1008E7FC5
:103260008093E1008091E2008E7F8093E200809164
:10327000E20080618093E20042E060E080E00E9432
:103280008A098091F00088608093F000FF91EF91AF
:10329000BF91AF919F918F917F916F915F914F916E
:1032A0003F912F910F900FBE0F901F90189519BC52
:1032B00010924A0410921B0476CF8091E30087FDA0
:1032C00093E090934A04B7CF78941F921FB61F9251
:1032D00011248F939F93AF93BF9380911204909189
:1032E0001304A0911404B09115040196A11DB11D01
:1032F0008093120490931304A0931404B0931504C4
:10330000BF91AF919F918F911F901FBE1F901895F5
:103310009C014FB7F8948091120490911304A091EE
:103320001404B09115044FBF821B930B08952FB75F
:10333000F8948091120490911304A0911404B09118
:1033400015042FBF08950E9497199C019091F102D6
:103350008091F202982B21F03093EE022093ED023F
:103360009091F3028091F402982B21F03093EC02BB
:103370002093EB02E0910D04F0910E04309749F098
:1033800082E08093EF020480F581E02D8FEE92E0E1
:1033900009940895CF93C82F8091170482FD0CC023
:1033A000809187028C1741F00E94971990935302E5
:1033B00080935202C0938702CF9108959F92AF925B
:1033C000BF92CF92DF92EF92FF920F931F93CF9312
:1033D000DF93CDB7DEB72F970FB6F894DEBF0FBEE1
:1033E000CDBF8E010F5F1F4F8AE0D8011D928A95D5
:1033F000E9F789E9C82E81E0D82EF12CE12CAA2426
:10340000A394B12CF60181916F018F3F09F44AC05A
:10341000F894E82FE295EF70F0E021A18F70A501FC
:1034200002C0440F551F8A95E2F7CA01922F982BCC
:1034300091A392A18095892382A30E94800C00C051
:10344000E3EAF1E030E020E0912C41914F3F09F4B4
:103450006CC0A42FA295AF70B0E090968C9190E0D4
:103460004F7002C0959587954A95E2F780FD5DC043
:103470008A2D022E01C0880F0A94EAF7982A2F5F3E
:103480003F4F2830310509F7F601319780818F3F92
:1034900011F00E94820C50EA5A95F1F7F801EE0DF6
:1034A000FF1D90828FEFE81AF80A95E0E916F10403
:1034B00009F0A8CF4AE050E0B80185E992E00E9407
:1034C000B9357C01892B41F08AE0F801A5E9B2E029
:1034D00001900D928A95E1F71091A002E114F10498
:1034E00031F181E0809356020E9497199093550222
:1034F0008093540280915402909155020E94881941
:10350000059770F0A5E9B2E0E12FF0E0E252FD4F3F
:103510008D91819322E0AA39B207D1F71092560219
:10352000EF2849F081E090E069C080E0A7CF80916A
:1035300056028111DFCF0E94FC10D82EE091A0022C
:10354000AE01455F5F4F7A01882309F48FC085E0A3
:10355000DA011D928A95E9F70E2F10E002521D4FF5
:10356000809190028A3008F05BC045E458E1B701D1
:10357000C8010E94B810882309F467C04FE059E2DF
:10358000B701C8010E94B810882309F45EC04CE658
:1035900057E1B701C8010E94B810882309F455C04B
:1035A00043E057E1B701C8010E94B810882309F42D
:1035B0004CC040EA56E1B701C8010E94B810882308
:1035C00009F443C010929002E0919F02F0E0BF0125
:1035D00062527D4FD7019E01205F3F4F80E0FB018B
:1035E0004191BF019D91491731F0AF0141505109FF
:1035F000FA0190838D2DA217B30789F72F960FB686
:10360000F894DEBF0FBECDBFDF91CF911F910F9118
:10361000FF90EF90DF90CF90BF90AF909F90089574
:1036200080915702909158020E948819843F9140DE
:1036300008F09BCFE0919F02F0E0E252FD4F108234
:1036400011821282138214826DCF809190028F3F7B
:1036500031F08F5F809390028A3008F4B5CF0E94DA
:1036600097199093580280935702E4CFF0E0E2520A
:10367000FD4FF89485E0AFE5B2E001900D928A9598
:10368000E1F765E070E08FE592E00E94200B809307
:103690005E020E94800CF894E091A802F0E0EB55E5
:1036A000FD4F80818B878093650261E070E0C701E8
:1036B0000E94200B809364020E94800CF894C090BA
:1036C0006602D0906702E0906802F09069028091F3
:1036D000590290915A02A0915B02B0915C02C81607
:1036E000D906EA06FB06D1F0C0925902D0925A02DE
:1036F000E0925B02F0925C020E94FC1081110EC00D
:103700000E947E0AC61AD70AE80AF90AC0929102F4
:10371000D0929202E0929302F09294020E94800C66
:10372000F89480916A0280931C0480916B028093CC
:10373000860280916C020E94CA190E94800CF89443
:10374000809174028823F1F080FF0DC080916D029A
:1037500080FF1CC09091F10391609093F10360E0B1
:1037600086950E949D158091740281FF09C020E01A
:103770004091700260916F0280916E020E9440142D
:10378000109274020E94800C80E038CF0E94A31037
:10379000EACF80911C0490918602892B909151026E
:1037A000892B8093D60180918702882329F10E947A
:1037B00097192091520230915302821B930B883843
:1037C000934110F00E94660E8091D601909187027D
:1037D000892B8093D60180915D01882341F18091EE
:1037E000160487FF24C08EE1E8EDF1E090E08150FF
:1037F00000F591110E94660EE0910D04F0910E0407
:103800003097E1F080915D01882359F08091160492
:1038100087FF07C08091D6018093D70185E0809310
:10382000D6010280F381E02D86ED91E0099486E0D7
:10383000DBCF21912223D9F29F5FD9CF089590E069
:1038400080E00E94CA0A90E080E00E94B40A1092D0
:103850008602109251020E94C91B86E0EFEEF2E050
:10386000DF011D928A95E9F71092E9021092E802B1
:103870001092EA020C94A31980934B040C941F1C21
:1038800080914B04982F9670963019F488600C94B0
:103890003C1C877FFCCF21E030E001C0220F8A95DD
:1038A000EAF7209580914B0482230C943C1C909164
:1038B00050028095892380935002282F277039F475
:1038C000282F082E000C330B9217130621F4909129
:1038D000170492FF07C08595859585950E944B1C1E
:1038E0000C94780E089521E030E001C0220F8A95F3
:1038F000EAF780914B04822B0C943C1C8093F603D6
:103900000C941F1C80915D01E8EDF1E0882359F0D3
:103910008091160487FF07C08EE1DF011D928A9512
:10392000E9F70C941F1C86E0F8CF1F93CF93DF9329
:10393000CDB7DEB7AA970FB6F894DEBF0FBECDBFE6
:1039400082E494E02091F100DC012D93CD01B4E0FC
:103950008A349B07B9F780914304833009F471C01E
:10396000B8F4813009F448C0823009F4B4C08091C1
:10397000E80083FF3CC180914204909143049A3057
:1039800008F035C1E92FF0E0E25DF94C0C94A33565
:103990008A3009F48FC08B3009F470C0893039F750
:1039A00080914204813219F7809146049091470436
:1039B000009711F00297D9F68091E800877F8093F5
:1039C000E8008091E80082FF37C09091F300809179
:1039D000F200029729F48091F1008B7F813021F46D
:1039E0008091F10080931E048091E8008B77809392
:1039F000E8000E946B09BBCF80914204813A09F034
:103A0000B6CF8091E800877F8093E80080914604DC
:103A100090914704892B61F460E28FE194E070E0BB
:103A20000E941D0A8091E8008B778093E8009FCF69
:103A300060E090E080E0F3CF80914A048111C1CF33
:103A400096CF80914204813A09F091CF809146044B
:103A500090914704892B09F08ACF8091E800877FF5
:103A60008093E8008091E80080FFFCCF80915D01A9
:103A70008093F1008091E8008E77B9CF8091420465
:103A8000813209F074CF8091460490914704892BCC
:103A900009F06DCF8091E800877F8093E8000E9455
:103AA0006B098091440480935D0110921C040E9474
:103AB000821C5DCF80914204813209F058CF809101
:103AC000E800877F8093E8000E946B09809145049D
:103AD00080931D044CCF80914204813A09F047CF76
:103AE0008091E800877F8093E8008091E80080FF64
:103AF000FCCF80911D04BCCF803899F0823809F04A
:103B000076C0809146048F70873008F070C0809333
:103B1000E9008091EB0085FB882780F91092E9008D
:103B200006C080913F049091400491118260909171
:103B3000E800977F9093E8008093F1001092F100E5
:103B40008091E8008E77C0C1882309F4ADC182302E
:103B500009F04DC0809144048111B1C180914604A7
:103B60008F702FEF280F263008F041C08093E900B6
:103B70002091EB0020FFA3C1933031F48091EB0042
:103B800080628093EB009BC19091EB0090619093D9
:103B9000EB0021E030E001C0220F8A95EAF7209384
:103BA000EA001092EA008091EB008860EACF811170
:103BB0001EC0109144041F778091E3008078812B10
:103BC0008093E3008091E800877F8093E8000E9463
:103BD0006B098091E80080FFFCCF8091E300806852
:103BE0008093E30082E0111183E080934A04809186
:103BF000E80083FF0AC08091E800877F8093E80097
:103C00008091EB0080628093EB00AA960FB6F89447
:103C1000DEBF0FBECDBFDF91CF911F9108958058B9
:103C2000823028F720914404309145042C3DE3E094
:103C30003E07A1F583E08A838AE289834FB7F8942F
:103C4000DE01139620E03EE051E2E32FF0E05093D6
:103C50005700E49120FF03C0E295EF703F5FEF70E3
:103C60008E2F90E0EA30C0F0C7968D939D932F5F22
:103C7000243159F74FBF8091E800877F8093E80097
:103C80006AE270E0CE0101960E941D0A8091E80070
:103C90008B778093E800ABCFC096E7CF8091460446
:103CA00090914704432F55274330510509F44AC0EA
:103CB00078F54130510509F485C08BE590E0E6E2E6
:103CC000F0E14230510509F092CF2091E800277FC2
:103CD0002093E8002091480430914904821793070B
:103CE00008F49C0140E02115310509F070C0411134
:103CF0006EC08091E80082FDC9CF80914A0488237C
:103D000029F2853019F28091E80083FFF2CFBECF0F
:103D10004132510509F447C04232510509F067CFDD
:103D20008330910508F063CFFC01EE0FFF1FE853CD
:103D3000FE4F0190F081E02D8B539E4FDC018C9162
:103D400090E01DC0332721303105E9F02115310500
:103D500079F022303105F9F02330310509F047CFF1
:103D6000E3E9F0E1E4918E2F90E0E3E9F0E107C0B0
:103D7000E7EDF0E1E4918E2F90E0E7EDF0E10097C0
:103D800009F435CFA2CFE9ECF0E1E4918E2F90E079
:103D9000E9ECF0E1F4CFE1EBF0E1E4918E2F90E07B
:103DA000E1EBF0E1ECCF8330910508F020CF880FF4
:103DB000991FFC01E253FE4F0190F081E02D89E054
:103DC00090E083CF82E190E0E1E8F0E17ECF809166
:103DD0004A04882309F45ACF853009F457CF8091DB
:103DE000E80083FD53CF8091E80082FD82CF80916F
:103DF000E80080FF78CF9091F3008091F2002115C8
:103E0000310519F08830910550F041E0089709F02C
:103E100040E08091E8008E778093E80064CF449181
:103E20004093F1003196215031090196E8CF803856
:103E300009F0DDCE8091E800877F8093E8008091D3
:103E400041048093F1007CCE8111D1CE10914404C5
:103E5000123008F0CCCE8091E800877F8093E80094
:103E6000109341040E946B09112311F084E005C0F6
:103E70008091E30087FDFACF81E080934A0442E01D
:103E800061EC81E00E948A0942E261EC84E00E94D8
:103E90008A0942E261EC82E00E948A0942E260EC17
:103EA00083E00E948A09A3CE80914404813009F006
:103EB0009ECE81E0933009F080E080934004109220
:103EC000E9008091E800877F8093E8000E946B09F9
:103ED0008ECE1F920F920FB60F9211242F933F9305
:103EE0004F935F936F937F938F939F93AF93BF9302
:103EF000CF93DF93EF93FF93D091E900DF70809130
:103F0000EC00C82FC17080FDC0E81092E9008091DC
:103F1000F000877F8093F00078940E94951C1092A7
:103F2000E9008091F00088608093F000CD2BCF7085
:103F3000C093E900FF91EF91DF91CF91BF91AF91D5
:103F40009F918F917F916F915F914F913F912F91B1
:103F50000F900FBE0F901F901895882341F0809509
:103F6000909186028923809386020C94C91B089540
:103F7000882339F090918602982B909386020C94B6
:103F8000C91B0895882321F00E94710E0C94C91B4F
:103F90000895882339F090911C04982B90931C0469
:103FA0000C94C91B0895882379F19CEF980F913ADE
:103FB00038F4682F86ED91E00E948A0A0C94C91BA0
:103FC00090E2980F983050F4877091E001C0990FFB
:103FD0008A95EAF7892F0E94710EF0CF9BE5980F22
:103FE000933020F490E080E00C94CA0A98E5980F92
:103FF000973120F490E080E00C94B40A803F20F0E8
:104000000E94510B0C94A3190895CF93C82F8823B5
:1040100009F49CC08CEF8C0F813A08F064C0809149
:104020005D018823D1F18091160487FF36C0EC2F03
:10403000E695E695E695F0E0EA52FE4F828190E043
:104040004C2F477021E030E002C0220F331F4A9509
:10405000E2F782239323892B61F06C2F86ED91E0A8
:104060000E948A0A0E94C91B22C08091160487FF01
:1040700022C0EC2FE695E695E695F0E0EA52FE4F79
:10408000C77021E030E001C0220FCA95EAF78281B3
:10409000822B8283CF910C94C91BE8EDF1E08EED69
:1040A00091E02191C217C9F28E179F07D1F7809135
:1040B0005D018111DACFA8EDB1E0EFEF80E09D91D5
:1040C000C91741F3EF3F19F4911101C0E82F8F5F39
:1040D0008630A9F7EF3FF1F20E2E000CFF0BEA52EB
:1040E000FE4FC283D7CF80E28C0F883068F4C77050
:1040F00021E030E001C0220FCA95EAF780911C044C
:10410000822B80931C04C6CFEBE5EC0FE33040F428
:10411000F0E0EA59FE4F808190E0CF910C94CA0AFA
:10412000E8E5EC0FE73150F4F0E0EE0FFF1FE75940
:10413000FE4F80819181CF910C94B40AC03F30F042
:104140008C2F0E94160CCF910C94A319CF91089537
:104150001F93CF93DF93182FEB010E9405208FE967
:104160009FE00197F1F700C000002197C1F7812F70
:10417000DF91CF911F910C94D31FAF92BF92CF923A
:10418000DF92EF92FF920F931F93CF93DF93EC0197
:104190008AE0A82E2881222309F49CC0213009F04E
:1041A0003FC099818A81913051F422966AE070E093
:1041B000893311F460E570E00E94A82005C09230B8
:1041C00029F422960E9405202196E4CF933021F411
:1041D00022960E94D31FF8CF943011F02196F4CF8D
:1041E000229630E020E0AE014F5F5F4F8053990B85
:1041F0008A30910550F02150310930F38FE99FE06A
:104200000197F1F700C00000F6CFA29EB001A39E77
:10421000700D11249C01260F371F8981EA01E3CF1D
:10422000E22FF0E0E650FE4FB490822F86958695FF
:10423000869590E0FC01E651FE4FE4902770F12C4A
:10424000022E02C0F594E7940A94E2F731E0E322EB
:10425000FF24FC01E652FE4FC490D12C022E02C076
:10426000D594C7940A94E2F731E0C322DD24FC011F
:10427000E653FE4F049110E002C0159507952A956C
:10428000E2F701701127E114F10419F081EE0E94A8
:104290000520C114D10419F086EE0E94052089E39F
:1042A0006AE070E0B81202C060E570E08B2D0E94F9
:1042B000A820CD2819F086EE0E94D31FEF2819F010
:1042C00081EE0E94D31F012B09F47ECF6AE070E0DB
:1042D0008CE272CFDF91CF911F910F91FF90EF9001
:1042E000DF90CF90BF90AF9008959091170492FD0A
:1042F00010C098E0899F90011124622B60935002B6
:104300000E94731C0E94971990934F0280934E0253
:1043100008950C94731C8F929F92AF92BF92CF928C
:10432000DF92EF92FF920F931F93CF93DF9300D012
:1043300000D00F92CDB7DEB76C01FC018381948170
:10434000892B31F08081918189238F3F09F0E9C366
:104350000F900F900F900F900F90DF91CF911F91C2
:104360000F91FF90EF90DF90CF90BF90AF909F9014
:104370008F9008950E94B313182F682F89819A8116
:104380000E94BC0E69817A81812F0E9497138C0153
:10439000F6018281882309F45AC3C80182519F45DE
:1043A000409708F043C38FEF93E00E94D635025147
:1043B00047ECE42E42E0F42E8823C9F080915002AD
:1043C000877031F2F6018281882311F282E00E9427
:1043D000571CBECFE114F4E0FF0681F3C7010E9431
:1043E000D635811101C001502FEFE21AF20A0111F6
:1043F000F1CF19821A821B821C820FEF47013FEF17
:10440000831A930AC7010E94D63589831A828823AA
:10441000A9F2813009F047C0570142E0A40EB11C57
:10442000C4010E94D635982E8A83882339F2C501AB
:104430000E94D635182F8FEF890D833068F457010D
:1044400053E0A50EB11C1B83112321F0CE01019670
:104450000E94BD207501D2CF84E09812FBCF570196
:1044600094E0A90EB11CC70103960E94D635112312
:1044700009F4A4CF882309F4A1CF8150990B089F98
:104480009001099F300D1124E12FE150FF0BCF0166
:10449000820F931F0197F0F2EFE9FFE03197F1F7F8
:1044A00000C00000F7CFCE0101960E94BD2054014C
:1044B000D1CF81E00E94731C0E94401C7FCF81E01D
:1044C0000E944B1CF9CF82E0F5CF82E0F9CF41E5A5
:1044D00055E16DE575E1073C3CE5130709F45AC069
:1044E00008F465C04DE555E161E575E153C00D3C4B
:1044F0005CE5150709F465C0A8F44BE755E16CE8E5
:1045000075E10B3CECE51E0709F444C045E455E1B8
:1045100069E375E10C3C1C45E8F14CE855E16BE7BB
:1045200075E138C0063D2CE5120708F447CF0D357C
:104530001D4509F443CFB1C28091F10380FF1EC035
:104540008E7F8093F1036091F1037091F20380916B
:10455000F3039091F4030E942E148091F70281607E
:104560008093F7024FEF50E782E041505040804087
:10457000E1F700C000000E94581020CF81608093B6
:10458000F10361E086950E949D1518CF40EC55E13E
:1045900069EC75E10E94360B11CF49EC55E160ECF6
:1045A00075E1F8CF49E655E162E775E1F3CF42E7FF
:1045B00055E169E675E1EECF49E355E165E475E162
:1045C000E9CF61E081E0DFCF0B359DE5190758F4B5
:1045D0000115ECE51E07C9F00E3D1C4509F05DC252
:1045E0000E94E515EBCE0B352DE51207E9F00C35F1
:1045F0001D4509F052C28091170482FB882780F97B
:1046000091E089270E941E1348C210921C040E9448
:10461000821C4FEF54E38CE0415050408040E1F762
:1046200000C000000E94341080E0ECCFC8010E945E
:104630008F0EF82E41C2212F2F70F22E107F19F00D
:10464000F29490EFF922EE20C9F0FF2069F080E2A9
:10465000800F883010F081100BC080911C04F82A64
:10466000F0921C040E94C91B802F0E94052015C0D7
:1046700080918602F82AF0928602F4CF802F0E9461
:10468000D31FFF2051F0005E083010F0811025C0CC
:104690008F2D0E94710E0E94C91BE92DE850FF0B5F
:1046A000349710F40E942011AA2009F451CE809171
:1046B000500280FD4DCEF601128285958595859537
:1046C0000E94731CC6010E948B2180915002859527
:1046D000859585950E944B1C3BCEF0948091860277
:1046E000F822F0928602D7CF312F3F70B32E107F81
:1046F000103219F0B29480EFB822882081F041E0A6
:10470000841609F443C0EE2009F44CC0FF2011F1D7
:10471000F601858180FFA8CF8F7085831BC0EE20B6
:10472000E9F0F11004C0809187028B2914C051E098
:10473000F51206C0809187028B290E94CA19ADCF5D
:1047400085E0F812F0CF0E94660E80914D02B812FB
:10475000B0924D028B2D0E94C91F9FCFF11006C051
:104760000E94660E8B2D0E94C21F97CF91E0F91216
:1047700008C080911C048B2109F48FCF0E947F0E0A
:10478000EFCFE5E0FE1609F488CFEACFEE2029F05E
:10479000F5E0FF1508F481CFDDCF24E02F1508F4F4
:1047A0007CCFE0CFFF20F1F2F9E38F1237C12FEF7A
:1047B00037EE43E0215030404040E1F700C00000B8
:1047C000802F0E94D31F69CF812F86958695837095
:1047D00061F0813009F061CFC8019370E11002C02F
:1047E00090E080E00E94B40A58CFC8019370E110B5
:1047F00002C090E080E00E94CA0A4FCF802FEE20D6
:1048000039F00E94160C0E94A3190E94A31945CFEB
:104810000E94510BFACF812F837089F5E1103DCFB3
:10482000402F429546954770440F440F802F8F705C
:10483000042E01C0880F0A94EAF7202F207104FF8C
:1048400007C02FE030E001C0220F4A95EAF720951B
:10485000169516951370123069F050F43091F603E6
:10486000113029F0822B83230E947E1C16CF832BCC
:10487000822BFACF282B8091F6038227F5CF8695DD
:10488000EE2011F0812F8170882309F406CF402F8C
:10489000429546954770440F440F802F8F70042E29
:1048A00001C0880F0A94EAF7202F207104FF07C087
:1048B0002FE030E001C0220F4A95EAF720951695C7
:1048C00016951370123069F050F430914B0411308A
:1048D00029F0822B83230E943C1CDFCE832B822B6A
:1048E000FACF282B80914B048227F5CF1F70EE2042
:1048F00029F0812F0E94731C802F2DCF802F0E94C2
:10490000C21F812F0E944B1CC8CE802F92EF8916A8
:1049100009F448C0981570F0E0EF8E1629F1F1EF18
:104920008F16C1F1EE2009F46DC0F1109DCE812FDC
:104930008F7135C023EF8216D1F134EF8312F2CF9D
:1049400080914D02EE2009F449C00E94710E8091C1
:10495000500287708430B1F50E94780E812F8F71DC
:104960000E944B1CA12C99CEEE2079F044E04F150B
:1049700008F493CE1F7181E090E001C0880F1A9572
:10498000EAF790914B048927A6CF55E05F1508F40C
:1049900084CEF0CF812F8F71EE2009F4B3CF0E9427
:1049A000731C7BCE812F8F71EE20C9F3ABCF80E0DB
:1049B000EE2009F490CF1F7181E001C0880F1A9595
:1049C000EAF789CF84E08F1568F21F71812F0E946A
:1049D000731C63E0812F0E947521C4CF90911C0449
:1049E000982B90931C0494E09F1540F40E94780E3D
:1049F0000E947F0E64E0812F8F71EDCF81E00E94D5
:104A0000571CB0CFFF2079F0893341F4EFEFF7EE78
:104A100023E0E150F0402040E1F7D0CE8FE39CE965
:104A20000197F1F7CBCE812F8F716CCF0031FFE56D
:104A30001F0709F43ECD01312FE5120709F443CDDC
:104A40000A352DE5120709F0BFCD81E0DBCD00313D
:104A50003FE5130709F433CD01314FE5140709F49D
:104A600034CD80911C048272093C3CE5130709F4A3
:104A7000A3CD08F03CCD053C5CE5150709F492CDCB
:104A800008F025CD033CECE51E0709F47FCD08F0C6
:104A900084CD023C1C4509F44FCDF6018281008192
:104AA0001181882309F4C2CDC8010E94B313F82EE6
:104AB000682FC8010E94BC0EB8018F2D0E94971369
:104AC0000E94DC0C8C01882EF601E280F580F294C5
:104AD0003FE0F322809150028770A1F0AE2CEE20CF
:104AE00091F0812F807F803421F080E2800F883028
:104AF00048F082E00E94571C809150028770AA24DF
:104B0000A3948111A12C912E92942FE09222FBE08C
:104B1000F91508F4C2CDE92DF0E0E85CF94C0C94ED
:104B2000A33585E0DE01119601900D928A95E1F79B
:104B3000F601228189819A8121111CCC0E948F0E5D
:104B4000182F20CC1F93CF93DF9380911A02807F80
:104B5000A9F480911702882389F080914C02D091AA
:104B60001B026091150270911602A0911802B0917B
:104B70001902C62FC72316E0D81304C0DF91CF91C6
:104B80001F91089590E0109711F0CF3F19F401960E
:104B90008770F2CF189F9001199F300D1124F901F1
:104BA000E45EFD4F41814713F2CF40814613EFCFC2
:104BB00042814111ECCF438154814A1B5B0B483C3D
:104BC000510528F780911A028F70806180931A0234
:104BD000F901EF5DFD4F80818F708061808385E1F9
:104BE00092E00E948B21DF91CF911F910C94850E52
:104BF000AF92BF92CF92DF92EF92FF920F931F93EB
:104C0000CF93DF93CDB7DEB761970FB6F894DEBFD1
:104C10000FBECDBF8C0185E0F801DE011D9601902D
:104C20000D928A95E1F7F801E28085E1A82E82E0F5
:104C3000B82E60911802709119026115710509F47E
:104C400032C19091150240911602892F84238F3F23
:104C500009F429C120813181C380D480F0901702EA
:104C6000F601E61BF70BFF2009F4E8C080911A0259
:104C7000582F507FE83CF10508F0ABC0511177C0C8
:104C8000FE2C431321C092131FC0E1101DC08F7072
:104C9000806180931A02C5010E948B2180911A02C3
:104CA000F80185838F2D61960FB6F894DEBF0FBE95
:104CB000CDBFDF91CF911F910F91FF90EF90DF90CB
:104CC000CF90BF90AF900895CD2829F0822F8323F5
:104CD0008F3F09F003C180E0F82FF170DF2E80FFD5
:104CE0003CC080914C0240911B0256E0841315C0D9
:104CF0002D873E878D859E850E94E213292F229560
:104D00002F702230F0F0243018F59F70F1F0F80188
:104D10009581907FD1F4D12C1EC090E0589FF00176
:104D2000599FF00D1124E45EFD4F6181361306C0DA
:104D30006081261303C06281E6120FC0019687705E
:104D4000D5CF9F7011F0882331F3805E883018F33F
:104D5000C8010E948B21FD2CA5CFEE2009F4A2CF23
:104D600080911A02816080931A02F12C9BCF431329
:104D700006C0921304C0F801EE2009F479C0C801FE
:104D80000E94EE13882309F1EE20F9F080911A02B7
:104D9000803270F0209115023091160238872F83EF
:104DA0001986DB86CA868C87CE0107960E948B21E6
:104DB00086E0F801A5E1B2E001900D928A95E1F755
:104DC0000E94A225FF24F3946DCFC8010E948B217D
:104DD000F9CF51110AC085E192E00E948B2186E053
:104DE000F50111928A95E9F7C0CF43130FC09213D2
:104DF0000DC0E1100BC0F8018583C8010E948B2112
:104E000086E0F50111928A95E9F74CCFC8010E941E
:104E1000EE138823D1F2EE20C1F280911A02803283
:104E200038F220911502309116023A8329831B82B1
:104E3000DD82CC828E83CE010196B8CFE83CF105AD
:104E4000F8F6FE2CEE2009F243131FC092131DC08A
:104E500080911A0280FD10C0982F907F69F0F801B0
:104E60008583903F31F0982F907F905F8F70892BD2
:104E70008583C8010E948B2186E0F801A5E1B2E09C
:104E800001900D928A95E1F70DCFC8010E94EE13B3
:104E900081118ECF80911A02816080931A02C8011D
:104EA0000E948B21FFCEEE2009F48FCFC8010E9413
:104EB000EE13F82E882309F488CF86E0F801A5E1E7
:104EC000B2E001900D928A95E1F7809115029091E0
:104ED00016020E94E2130E94A225E4CE81E08E25F4
:104EE000FBCE1F93CF93DF93CDB7DEB767970FB697
:104EF000F894DEBF0FBECDBF4B8B5C8B6D8B7E8B72
:104F00008F8B6111109286021A8A198A85E0FE0140
:104F10007396DE011D9601900D928A95E1F70E942D
:104F2000971920914E0230914F02821B930B8838C3
:104F3000934120F08091500282FF81C00E94971916
:104F40002091520230915302821B930B8838934177
:104F500010F00E94660E86E0FE013D96DE01179677
:104F600001900D928A95E1F7CE0107960E94F825EF
:104F7000882389F016E080914C0290911B028913DE
:104F80004BC067960FB6F894DEBF0FBECDBFDF9162
:104F9000CF911F91089586E0FE013796DE011196AC
:104FA00001900D928A95E1F78A859B85892B11F3F3
:104FB0008F81988589238F3FE9F220911B0230E091
:104FC000C90101968770992740914C02481719062C
:104FD00081F410921C040E94821C10921B021092F9
:104FE0004C0286E0E5E1F2E0DF011D928A95E9F7E7
:104FF000C1CF96E0929FD001939FB00D1124A45E83
:10500000BD4FFE01319601900D929A95E1F7809384
:105010001B020E94850EAECF819FC0011124845EC9
:105020009D4F0E94F825882309F4ABCF80914C0254
:1050300090E001968770992780934C029CCF82E084
:105040000E94571C7BCF0F931F93CF93DF9300D009
:1050500000D00F92CDB7DEB78C019093FA03809306
:10506000F903011580E2180720F5802F0E94D31F55
:10507000C8010E94FD0E9801205E310928303105DB
:1050800010F0012B59F40F900F900F900F900F908C
:10509000DF91CF911F910F910C94C21F0F900F9031
:1050A0000F900F900F90DF91CF911F910F910C9463
:1050B000AD1F8EEF89838A831B820E9497198160BE
:1050C000782F9D838C8349815A816B818D810F90CC
:1050D0000F900F900F900F90DF91CF911F910F9134
:1050E0000C9471270F931F93CF93DF9300D000D0C0
:1050F0000F92CDB7DEB78C019093FA038093F9033A
:10510000011580E21807E8F4C8010E94FD0E98011D
:10511000205E31092830310518F00115110571F4B0
:105120000E94C91F802F0F900F900F900F900F902B
:10513000DF91CF911F910F910C9405200E94B81F11
:10514000F1CF8EEF89838A8381E08B830E94971948
:105150008160782F9D838C8349815A816B818D81F9
:105160000F900F900F900F900F90DF91CF911F91A4
:105170000F910C947127AF92BF92CF92DF92EF9272
:10518000FF920F931F93CF93DF93B82EA62EC0905C
:105190004B048091F603C82AC7E0D0E0D12CF12C53
:1051A000E12CD701C6010C2E04C0B695A7959795A2
:1051B00087950A94D2F780FF20C04A2D6B2D8C2F43
:1051C0000E9438138C0181309105B9F00E94722839
:1051D0008FE99FE00197F1F700C00000C8010E942D
:1051E000232881E0DF91CF911F910F91FF90EF90E5
:1051F000DF90CF90BF90AF900895219790F64A2D01
:105200006B2D80E00E943813EC010E9472288FE918
:105210009FE00197F1F700C00000CE01E0CFCF92F0
:10522000DF92EF92FF920F931F93CF93DF930F9232
:10523000CDB7DEB7EE24E394F12C05E612E09E0133
:105240002F5F3F4F4EE752E063E082E00E94D117AC
:10525000082F882321F1C090A2028C2D90E09C01A0
:105260002B553D4F79011981F9018081181BD12EF1
:1052700080E00AC0DA94F70180818F5F808360E06C
:105280008C2D0E94BB28802F1D14A4F3912F17FD95
:1052900090E0191B11110EC081110E94640E802F25
:1052A0000F90DF91CF911F910F91FF90EF90DF90C2
:1052B000CF9008951F5FF70180818150808361E066
:1052C0008C2D0E94BB28802FE5CF1F921FB61F9206
:1052D00011248F939F93AF93BF93809111048111F9
:1052E00013C08091120490911304A0911404B09102
:1052F00015044196A11DB11D8093120490931304CF
:10530000A0931404B0931504BF91AF919F918F9116
:105310001F901FBE1F901895CDB7DEB7E7970FB649
:10532000F894DEBF0FBECDBF84B7877F84BF0FB6B2
:10533000F894A89580916000886180936000109235
:1053400060000FBE80E890E00FB6F8948093610093
:10535000909361000FBE85B7806885BF85B7806870
:1053600085BF8EE79CE09093D5018093D4010E9485
:10537000C9080E94BC098091E20084608093E20029
:10538000789480914A048823A1F01091E9001F705D
:105390009091EC00892F817090FD80E8182B10927D
:1053A000E9008091E80083FD0E94951C1F70109316
:1053B000E90082E084BD93E095BD9AEF97BD8093AC
:1053C0006E0010929102109292021092930210922B
:1053D00094020E941514811102C00E940F130E94B2
:1053E000FC108093460180914601882309F473C024
:1053F0001092580187E2809359010E94FC1081119C
:105400000E94AE33809146018091460195E0811162
:1054100090E09093A00285E0891B80939F0209E9A8
:1054200011E0BEE9EB2EB1E0FB2ED8018D918D018C
:105430008F3F11F00E94820CE016F106B1F703EAEB
:1054400011E0ABEAEA2EA1E0FA2EF80181918F017A
:105450008F3F11F00E94820CE016F106B1F7E5E9EA
:10546000F2E08FE992E0AEEDB2E011921D928E175C
:105470009F07D9F70E948218811102C00E94E5158A
:1054800082E090E00E94D6358093CF0284E090E0E5
:105490000E94D635182F82E290E00E94D635982FD0
:1054A000812F90931704809316040E94DE198FE3D6
:1054B0009CE90197F1F700C000000E94DE1980917D
:1054C000DE0280FF0DC06FEF7FEF90E080E00E9472
:1054D00008360E94341087E2809358018CE28BCF0B
:1054E00083E090E00E94D6350E947E1C0E94FC1052
:1054F000811102C00E94B1330E94FC1081117BC255
:105500001092CA0280E880934E060E9446326DE0F7
:1055100070E08DE892E00E942E0F892BE9F58091D2
:10552000CA0263E070E081FD6BC28AE892E00E94EB
:105530002E0F892B89F56DE070E08AE792E00E94DA
:105540002E0F892B49F50E947E0A605A75418F4FB4
:105550009F4F609305047093060480930704909313
:105560000804EEE4F4E080E092E0DF019C011D928B
:1055700021503040E1F7F0934D04E0934C048FEF5D
:105580009FEF909304048093030481E080930A04C6
:10559000809309041092CB028091A102811136C040
:1055A0000E948218811104C00E94E5150E94CD1549
:1055B00088E090E00E94DE356093F1037093F2037F
:1055C0008093F3039093F4038091F70283608093B8
:1055D000F7026E7F71F40E94CD1588E090E00E9482
:1055E000DE356093F1037093F2038093F30390939D
:1055F000F4030E943B0B8091F10380FF04C060E044
:1056000086950E949D1581E08093A10224982C9A92
:1056100025982D9A83B1829581701D99F4C190E0EF
:10562000892B8093A9029091460181E0982790935D
:10563000A802891B8093A20287E491E090930E0454
:1056400080930D048EED92E03AE0380F3DAB8091EF
:105650004A04FF24F39400E112E1853009F41BC2EF
:105660000E94DE19E82E81110E947E0AE0EDF2E030
:10567000AEEDB2E010E000E0B02EDD9081918D152E
:1056800009F42AC28D25C12CFF24F394982F9F2161
:1056900009F41DC20E94FC10882399F0C9A6BAA67D
:1056A000DF2081E009F480E08BA70E9497198160D8
:1056B000782F9DA78CA749A55AA56BA58DA50E94FB
:1056C0007127F801E053FD4F8081F826F082E091C8
:1056D000A902EE0FEE0FE093A90283B182958170CB
:1056E0008BAB1CAA1D990FC280E0ABA9BCA98A2B69
:1056F000E82BE093A9021091A802EF70F0E0E555C5
:10570000FE4F80819091A702890F8093A702F12C10
:1057100084306CF0E12FF0E0EB55FD4F80818F5F1E
:10572000808360E0812F0E94BB28FF24F394809146
:10573000A7028D3F6CF4E12FF0E0EB55FD4F808127
:105740008150808361E0812F0E94BB28FF24F39465
:105750008091A702082E000C990B64E070E00E9473
:105760008F358093A702F1100E94640E80910A0485
:10577000882351F18091CC029091CD020E9488192A
:10578000C29708F0C3C1209103043091040421158D
:10579000310509F055C2809109048823A9F00E94BF
:1057A0007E0A0091050410910604209107043091AF
:1057B0000804601B710B820B930B6F3F7F4F8F4F61
:1057C0009F4710F40E945E0FE11001C0F1100E948B
:1057D000790F86E0EFEEF2E08E010F5F1F4FD801E8
:1057E00001900D928A95E1F7D090F102C090F202FB
:1057F000F090F302E090F4021092F1021092F202A3
:105800001092F3021092F4028D2D8C2909F448C0F5
:105810008091ED029091EE020E9488199C01909176
:10582000E902992309F42DC623333105C8F19F3FBE
:1058300019F09F5F9093E902DD2059F00E94F60B6A
:105840009FEF1D140CF491E0899F802D112480930B
:10585000F102CC2059F00E94F60B9FEF1C140CF4BF
:1058600091E0899F802D11248093F2023091F10202
:105870003323B1F02091F202222391F045EB34035F
:10588000C0011124992309F4AFC29093F10245EBB2
:10589000240390011124332309F4AAC23093F202A5
:1058A0008F2D8E2909F448C08091EB029091EC0273
:1058B0000E9488199C019091E802992309F4DCC5A3
:1058C00025363105C8F19F3F19F09F5F9093E8029C
:1058D000FF2059F00E94D40B9FEF1F140CF491E0AD
:1058E000899F802D11248093F302EE2059F00E94AD
:1058F000D40B9FEF1E140CF491E0899F802D11248E
:105900008093F4023091F3023323B1F02091F4023A
:10591000222391F045EB3403C0011124992309F4AB
:105920006BC29093F30245EB2403900111243323BF
:1059300009F466C23093F4028091F1029091F20270
:10594000892B9091F302892B9091F402892B11F00D
:105950000E94A31986E0F801AFEEB2E001900D922B
:105960008A95E1F70E9420119091CE02891721F0CB
:105970000E9420118093CE0280914A04843009F065
:1059800066CE83E08093E9008091E80082FF5FCEDD
:105990008091E80090E085FF0AC00E94E80840E29C
:1059A000E42EF12C6801882309F438C291E080913B
:1059B000E8008B778093E800992309F448CEE090C3
:1059C000FB03F090FC038981E114F10409F434C273
:1059D0008E3F09F0C4C28A81833020F08550833025
:1059E00008F0BDC2EA81EE3008F0B9C2F0E0EC5B2D
:1059F000F94C0C94A33581E08093CA0280E283CDF8
:105A000087E892E094CD92E00BCE80914A048430F6
:105A100009F433C00E945E0F8091A402811109C075
:105A2000F092A4028091F10381708093A3020E94FE
:105A3000A3101092110488E190E0A0E40FB6F8944E
:105A4000A895809360000FBEA093600083B7817F0C
:105A5000846083BF83B7816083BF7894889583B760
:105A60008E7F83BF0FB6F894A895809160008861FF
:105A700080936000109260000FBE809140048823E4
:105A800051F00E94DE19EEEDF2E081918111D3C454
:105A9000BDA9BE13FACF80914A04853009F4B5CF71
:105AA00010921C040E94821C0E9420111092A402D9
:105AB0008091A302882309F4D3CD8091F103816002
:105AC0008093F10360E086950E949D15C9CDC39433
:105AD000FF0C28E0C212DACD0F5F1F4F0A3011050C
